:020000040800F2
:100000002809002055010008CD1D0008DF1C00084C
:1000100000000000000000000000000000000000E0
:10002000000000000000000000000000D31D0008D8
:100030000000000000000000D11D0008D51D0008D0
:100040006701000800000000670100086701000860
:1000500067010008670100086701000867010008E0
:1000600000000000850600089506000867010008EA
:100070006701000867010008670100080000000030
:100080006701000800000000000000006701000890
:100090000000000067010008670100086701000810
:1000A000000000006701000800000000B124000803
:1000B00000F002F800F03EF80CA030C80838241810
:1000C0002D18A246671EAB4654465D46AC4201D190
:1000D00000F030F87E460F3E0FCCB6460126334284
:1000E00000D0FB1AA246AB463343184760260000F7
:1000F00080260000103A02D378C878C1FAD8520797
:1001000001D330C830C101D504680C6070470000CD
:100110000023002400250026103A01D378C1FBD823
:10012000520700D330C100D50B6070471FB51FBD0B
:1001300010B510BD00F073FA1146FFF7F7FF02F09B
:100140001DFA00F08BFA03B4FFF7F2FF03BC00F0D6
:1001500091FA00000748804707480047FEE7FEE79E
:10016000FEE7FEE7FEE7FEE704480549054A064BC1
:10017000704700005F1E0008B1000008280300203F
:10018000280900202805002028050020FEB5054686
:1001900010460C46184373D0AE468C460020AD1A6C
:1001A00001469C4167D36646002701243D46B61AA6
:1001B0009D4102D313463A462124654676462F04D4
:1001C000360C3E432D0CB61A9D4104D3150C1B046E
:1001D0002B4312041034654676462F06360A3E43FA
:1001E0002D0AB61A9D4104D3150E1B022B43120291
:1001F0000834654676462F0736093E432D09B61A60
:100200009D4104D3150F1B012B431201241D65468C
:100210007646AF07B6083E43AD08B61A9D4104D3F3
:10022000950F9B002B439200A41C65467646EF0772
:1002300076083E436D08B61A9D411AD392185B4169
:10024000641C16E00018764665464941B71A9D4180
:100250000191009009D36046B11A98418E468446B8
:10026000009801990025401C6941DD0752082A4386
:100270005B08641EE6D57246634603B0F0BDFFE737
:1002800000200146C046C0462A462346F5E701E065
:1002900004C0091F0429FBD28B0701D50280801CF2
:1002A000C90700D00270704700290BD0C30702D0E5
:1002B0000270401C491E022904D3830702D5028024
:1002C000801C891EE3E70022EEE70022DFE7002220
:1002D00003098B422CD3030A8B4211D300239C4683
:1002E0004EE003460B433CD4002243088B4231D3FB
:1002F00003098B421CD3030A8B4201D394463FE08F
:10030000C3098B4201D3CB01C01A524183098B42EE
:1003100001D38B01C01A524143098B4201D34B01D7
:10032000C01A524103098B4201D30B01C01A52413A
:10033000C3088B4201D3CB00C01A524183088B42C1
:1003400001D38B00C01A524143088B4201D34B00AA
:10035000C01A5241411A00D201465241104670471C
:100360005DE0CA0F00D04942031000D34042534021
:1003700000229C4603098B422DD3030A8B4212D3E1
:10038000FC22890112BA030A8B420CD38901921113
:100390008B4208D3890192118B4204D389013AD050
:1003A000921100E08909C3098B4201D3CB01C01A25
:1003B000524183098B4201D38B01C01A5241430938
:1003C0008B4201D34B01C01A524103098B4201D326
:1003D0000B01C01A5241C3088B4201D3CB00C01A93
:1003E000524183088B4201D38B00C01A5241D9D2AB
:1003F00043088B4201D34B00C01A5241411A00D22C
:100400000146634652415B10104601D34042002B27
:1004100000D54942704763465B1000D3404201B5A6
:100420000020C046C04602BD7047704770470000BC
:10043000F0B5FF252D04C609C209FF2704462E404A
:100440000137CB093E4348402A402B400746002A4B
:100450006BD0002B69D0AA4267D0AB4265D0002890
:1004600000DA32460125ED0529432C43090220021A
:10047000090AD21A4B0C7F24E31A434C000A7C442D
:10048000E35C7D242404121914145B00A218884232
:1004900001D3521C00E0400049420C465C43241149
:1004A0005C43DB016415E318040A5C43C502200DBC
:1004B0000C4644436419250A5D432303EC0C0D46A6
:1004C000654300030019EB184C42A34201D35B18AB
:1004D000401CD4052018002B07D05B00C91804D39A
:1004E000401C002901D1400840003F2189048A4274
:1004F00009D3002A08DC1106090F04D0032149079B
:100500004018C00FC007F0BD012241001206891833
:100510007F2252069142F6D205214907C84201D5F1
:100520009010F0BDFF20C005F0BD002F00DA32466C
:100530001648AA4207D2AB4205D21902090E17D0BB
:10054000F80FC007F0BDFF2563002D06AB42F9D8B8
:100550004900A942F6D8AB4201D1A942F2D0A94242
:1005600001D1002101E061004908D0050843F0BD38
:100570001102090EFBD0FF200243D005F0BD0A4650
:100580000146104654E700008A2200000000C07FA8
:100590000102C21504D00123DB071943002A0ADB3C
:1005A0009E239A1A02D40846D0407047FF22410089
:1005B0001206914201D900207047C017C04370470E
:1005C0001F22030C02D10F2200041CD0030E01D104
:1005D0000002083A030F01D10001121F830F01D15D
:1005E0008000921E002801DB4000521ED2055118E7
:1005F000021251181922904004D3491C002801D13D
:100600004908490008467047C10FC90700D0404259
:10061000012292071143D3E701218907D0E77546EC
:1006200000F024F8AE46050069465346C008C000F5
:10063000854618B020B5FFF797FD60BC0027490834
:10064000B6460026C0C5C0C5C0C5C0C5C0C5C0C56A
:10065000C0C5C0C5403D49008D46704710B5044631
:10066000C046C0462046FFF76EFD10BD00487047EB
:10067000C402002001491820ABBEFEE7260002009C
:100680007047000010B5024800F079F810BD000076
:100690002000002010B5024800F071F810BD0000E5
:1006A0008002002030B50124056CAC40C56B6C6045
:1006B000046863604468102C04D10468A260046874
:1006C000E16003E00468A1600468E26030BD72B6D6
:1006D00000BFFEE701462120405C022808D004202C
:1006E000886300BF00222020425400BF01207047D1
:1006F000086800680E2290430A6810600868006865
:10070000400840000A68106001200A6C9040CA6BE3
:10071000506001222120425400BF00222020425478
:1007200000BF0020E3E770B5044600252120005DEE
:10073000022803D00420A06301251EE02068006881
:100740000E21884321680860206800684008400046
:10075000216808600120216C8840E16B486001211C
:100760002120015500BF00212020015500BF606BF2
:10077000002802D02046616B8847284670BD70B5BE
:100780000446E06B0568206806680420216C8840F8
:10079000284000281BD004203040002817D02068B3
:1007A000006820210840002805D120680068042145
:1007B0008843216808600420216C8840E16B486010
:1007C000E06A002852D02046E16A88474EE00220C5
:1007D000216C88402840002823D002203040002887
:1007E0001FD02068006820210840002808D1206818
:1007F00000680A21884321680860012121200155F1
:100800000220216C8840E16B486000BF002120205D
:10081000015500BFA06A002828D02046A16A884759
:1008200024E00820216C8840284000281ED00820A1
:10083000304000281AD0206800680E2188432168C3
:1008400008600120216C8840E16B48600120A063B2
:1008500001212120015500BF00212020015500BFAA
:10086000206B002802D02046216B884770BDF8B568
:1008700004460D4616461F460020009000BF20206B
:10088000005D012801D10220F8BD01212020015581
:1008900000BF2120005D01282DD10221212001551A
:1008A0000020A063206800684008400021680860BC
:1008B0003B46324629462046FFF7F4FEE06A002810
:1008C00006D0206800680E210843216808600BE00C
:1008D000206800680A2108432168086020680068D1
:1008E00004218843216808602068006801210843CA
:1008F0002168086006E000BF00212020015500BFEC
:10090000022000900098BFE770B5044600F00AF995
:1009100006462546681C002802D0054800782D1898
:1009200000BF00F0FFF8801BA842FAD370BD0000A2
:100930001800002078B503460A460021DFE00126B2
:100940008E4014683440002C7ED01579AD07AD0F71
:10095000012D04D01579AD07AD0F022D18D198687F
:100960004E000325B5400646AE4330464E00D568DE
:10097000B54028439860586801258D400646AE432F
:1009800030461026556835402D098D402843586063
:100990001579AD07AD0F032D0BD0D8684E00032598
:1009A000B5400646AE4330464E009568B5402843F4
:1009B000D8601579AD07AD0F022D15D1CD08AE0069
:1009C0001D462035A8594D07EE0E0F25B5400646A9
:1009D000AE4330464E07F60E1569B5402843CD08A4
:1009E000AD001E462036705118684E000325B540F4
:1009F0000646AE4330461579AD07AD0F4E00B54003
:100A0000284318600326360455683540002D75D0FC
:100A100000BF3E4DAD69012635433C4EB5613546BC
:100A2000AD69ED07ED0F009500BF00BF384D8E0892
:100A3000B600A8598D072E0F0F25B5400646AE43C8
:100A400030460925ED0600E058E0AB4201D1002513
:100A50000FE0304DAB4201D101250AE02E4DAB42F3
:100A600001D1022505E02D4DAB4201D1032500E067
:100A700005258E07360FB5402843254D8E08B60054
:100A8000A851274DA8680546A543284601263605E6
:100A900055683540002D02D0054625432846204D97
:100AA000A860E8680546A5432846012676055568EE
:100AB0003540002D02D0054625432846184DE860F4
:100AC00068680546A54328460126760455683540E2
:100AD000002D02D0054625432846114D6860286840
:100AE0000546A54328460126360455683540002DA5
:100AF00002D0054625432846094D2860491C156843
:100B0000CD40002D00D01AE778BD00000010024053
:100B1000080001400004004800080048000C00489C
:100B200000040140014800687047000010000020E8
:100B30000348006803490978401801490860704774
:100B4000100000201800002010B506480068102191
:100B5000084304490860032000F006F800F02EF86E
:100B6000002010BD0020024070B5044610480178F6
:100B70007D20C000FFF7ABFB064631460D480068FC
:100B8000FFF7A5FB054600F0B3FC002801D00120CB
:100B900070BD042C07D200222146501E00F02EF812
:100BA0000548046001E00120F2E70020F0E70000C2
:100BB000180000201C0000201400002008B500BF11
:100BC0000D488069012108430B4988610846806906
:100BD000C007C00F009000BF00BF00BF0846C0693B
:100BE000090408430449C8610846C069090408406B
:100BF000009000BF00BF08BD0010024070B5044661
:100C00000D4616462946204601F072FC70BD0000D4
:100C1000F8B5044600260025012109042068084093
:100C200088427AD100274B48C06909030840002850
:100C30000DD100BF4748C06908434649C86108460E
:100C4000C06909040840009000BF00BF0127424866
:100C50000068FF2101310840002816D13E48006895
:100C600008433D490860FFF75DFF064606E0FFF7D1
:100C700059FF801B642801D90320F8BD364800685D
:100C8000FF21013108400028F1D03248006A0321D9
:100C9000090208400546002D2DD060680840A84292
:100CA00029D02C48006A884305462A48006A012159
:100CB00009040843274908620846006A012109041B
:100CC00088432449086208460562E807C00F0028E7
:100CD00011D0FFF727FF064607E0FFF723FF801B31
:100CE0001E49884201D90320C7E71A48006A022139
:100CF00008400028F1D01748006A03210902884300
:100D00006168084313490862012F05D10846C0698C
:100D1000090488430F49C86100BF2078C007C00F8D
:100D2000002807D00B48006B80088000A1680843AA
:100D300008490863202120680840202807D1054879
:100D4000006B10218843E1680843024908630020D2
:100D500093E700000010024000700040881300007C
:100D600070B504460D46002C01D1012070BD5248DB
:100D70000068C007C00FA8420ED24F480068400864
:100D8000400028434C49086008460068C007C00F6F
:100D9000A84201D00120E9E702212068084002288A
:100DA00014D1042120680840042807D14348406832
:100DB0000721090288434018404948603F4840687D
:100DC000F0218843A16808433C4948602078C00767
:100DD000C00F00283BD06068012808D13748006860
:100DE000012149040840002815D10120BEE76068B0
:100DF000022808D13148006801214906084000282E
:100E000009D10120B2E72D480068022108400028DE
:100E100001D10120AAE72948406880088000616864
:100E2000084326494860FFF77DFE064607E0FFF7C6
:100E300079FE801B2249884201D9032096E71F488A
:100E400040680C210840616889008842EFD11A4847
:100E50000068C007C00FA8420ED9174800684008B4
:100E6000400028431449086008460068C007C00FC6
:100E7000A84201D0012079E7042120680840042815
:100E800008D10E484068072109028843E1680843F9
:100E90000A49486000F01AF808494968F0221140F0
:100EA0000909084A515CC840074908600320FFF758
:100EB0005BFE00205AE700000020024000100240C4
:100EC00088130000F42600081C000020F8B5002458
:100ED000002500270026002000901D4844680C20B3
:100EE000204000282DD0042802D0082828D102E074
:100EF0001848009028E00F2080042040800C1649FC
:100F00000E5C1348C06A0007000F14490D5C0120F5
:100F1000000420400121090488420AD12A46002306
:100F20000C481946FFF732F9314601F0C9FA074675
:100F300004E00B48314601F0C3FA0746009703E08E
:100F400000BF0448009000BF00BF0098F8BD00003B
:100F50000010024000127A00D4260008E42600089F
:100F600000093D00FEB50446002C01D10120FEBD64
:100F70002078C007C00F002871D0FC4840680C21C1
:100F8000084004280BD0F94840680840082812D1CE
:100F9000F648406801210904084088420BD1F34813
:100FA000006801214904084000286BD060680028CF
:100FB00068D10120DBE700BF6068012807D1EB485A
:100FC0000068012109040843E849086031E06068CD
:100FD00000280ED1E5480068012109048843E3494F
:100FE000086008460068012189048843DF490860D9
:100FF0001FE0606805280ED1DC48006801218904E3
:101000000843DA49086008460068012109040843DA
:10101000D64908600DE0D5480068012109048843DD
:10102000D249086008460068012189048843CF49F5
:10103000086000BF6068002812D0FFF773FD054606
:1010400006E0FFF76FFD401B642801D903208EE7FF
:10105000C64800680121490408400028F1D011E089
:10106000FFF760FD054606E0FFF75CFD401B6428C6
:1010700001D903207BE7BD480068012149040840ED
:101080000028F1D1022120680840022861D1B74828
:1010900040680C21084000280BD0B4484068084044
:1010A00008281BD1B14840680121090408400028E4
:1010B00014D1AE48006802210840002804D0E0683E
:1010C000012801D0012052E7A8480068F821884390
:1010D0002169C9000843A54908603AE0E068002892
:1010E00020D0A248006801210843A0490860FFF70A
:1010F00019FD054606E0FFF715FD401B022801D942
:10110000032034E799480068022108400028F2D003
:1011100096480068F82188432169C900084393492B
:10112000086016E091480068400840008F49086058
:10113000FFF7F8FC054606E0FFF7F4FC401B022829
:1011400001D9032013E789480068022108400028DC
:10115000F2D1082120680840082831D1E069002830
:1011600017D08248406A0121084380494862FFF74E
:10117000D9FC054606E0FFF7D5FC401B022801D943
:101180000320F4E67948406A022108400028F2D0A2
:1011900016E07648406A4008400074494862FFF70C
:1011A000C1FC054606E0FFF7BDFC401B022801D943
:1011B0000320DCE66D48406A022108400028F2D195
:1011C000042120680840042873D10020019067485A
:1011D000C0698906084000280ED100BF6348C06975
:1011E00008436249C8610846C06909040840009084
:1011F00000BF00BF012001905D480068FF21013160
:101200000840002816D15A48006808435849086029
:10121000FFF788FC054606E0FFF784FC401B6428C6
:1012200001D90320A3E652480068FF21013108409C
:101230000028F1D000BFA068012806D14B48006A01
:1012400001210843494908622BE0A06800280CD11D
:101250004648006A40084000444908620846006A5F
:1012600004218843414908621BE0A06805280CD18D
:101270003E48006A042108433C4908620846006A67
:1012800001210843394908620BE03848006A4008E8
:101290004000364908620846006A04218843334901
:1012A000086200BFA068002813D0FFF73BFC05468A
:1012B00008E02BE0FFF736FC401B2E49884201D99D
:1012C000032054E62948006A022108400028F1D092
:1012D00011E0FFF727FC054607E0FFF723FC401B62
:1012E0002449884201D9032041E62048006A0221AE
:1012F00008400028F1D10198012806D11B48C06997
:101300000121090788431949C86100BF10212068DD
:101310000840102860D1606901282DD11348406B26
:1013200004210843114948630846406B01210843E2
:101330000E494863FFF7F6FB054606E0FFF7F2FBB0
:10134000401B022801D9032011E60848406B022106
:1013500008400028F2D00548406BF8218843A16975
:10136000C90008430149486336E00000001002400C
:1013700000700040881300006069401D00280FD1F4
:101380005A48406B04218843584948630846406BDB
:10139000F8218843A169C9000843544948631BE008
:1013A0005248406B04210843504948630846406B4B
:1013B000400840004863FFF7B5FB054606E0FFF72D
:1013C000B1FB401B022801D90320D0E54748406B00
:1013D000022108400028F2D1206A00284FD043485B
:1013E00040680C210840082864D0206A022847D1B0
:1013F0003E4800680121090688433C490860FFF720
:1014000091FB054606E0FFF78DFB401B022801D942
:101410000320ACE535480068012149060840002852
:10142000F1D100BF3148C06A00090001E16A0843F8
:101430002E49C862616AA06A08432C4949683D2266
:101440001204914308432949486000BF08460068D8
:1014500001210906084325490860FFF763FB05469B
:1014600006E0FFF75FFB401B022801D903207EE561
:101470001E4800680121490608400028F1D033E0E9
:101480001A48006801210906884318490860FFF7D7
:1014900049FB054606E0FFF745FB401B022801D942
:1014A000032064E51148006801214906084000282E
:1014B000F1D119E0206A012800D158E50B484668AF
:1014C000C76A012000043040616A88420AD13907A6
:1014D000090FE06A814205D10F2080043040A16AE3
:1014E000884201D0012042E5002040E50010024082
:1014F00070B504462546681E0949884201D9012075
:101500000CE0681E074948610321081F00F0F0FF46
:1015100000200449886107200861002070BD000098
:10152000FFFFFF0000E000E010B586B00446142184
:1015300001A8FEF7CAFE1949206888422CD100BFD5
:1015400017484069491308431549486108464069EE
:10155000012149040840009000BF00BF00BF1048AF
:101560004069490008430E49486108464069012125
:1015700089040840009000BF00BFC02001900220F5
:10158000029000200390032004900120059001A9FF
:101590000920C006FFF7CEF906B010BD00040040D8
:1015A00000100240F8B504460D461646002700BF5D
:1015B0003C20005D012801D10220F8BD01213C2022
:1015C000015500BF002E06D0042E1BD0082E33D0AC
:1015D0000C2E62D147E02946206800F0A3FC206869
:1015E0008069082108432168886120688069042196
:1015F00088432168886120688069296908432168D7
:1016000088614CE02946206800F0DAFC2068806997
:101610000121C9020843216888612068806901218D
:1016200089028843216888612068806929690902E4
:1016300008432168886132E02946206800F018FDDF
:101640002068C069082108432168C8612068C06912
:10165000042188432168C8612068C069296908435A
:101660002168C8611BE02946206800F057FD20680A
:10167000C0690121C90208432168C8612068C069A6
:101680000121890288432168C8612068C0692969ED
:10169000090208432168C86101E0012700BF00BFBB
:1016A00000BF00213C20015500BF384685E710B53A
:1016B0000446002C01D1012010BD3D20005D002812
:1016C00005D100213C200155204600F023F80221DD
:1016D0003D200155211D206800F0C2FB012146205C
:1016E000015500BF3E2001553F20015540200155C6
:1016F0004120015500BF00BF422001554320015544
:10170000442001554520015500BF3D2001550020D2
:10171000D2E7000008B5094A016891420DD100BF27
:101720000749C96902221143054AD1611146C969B5
:1017300002221140009100BF00BF08BD000400401C
:101740000010024070B504460D46002D02D13E2027
:10175000005D0BE0042D02D13F20005D06E0082D66
:1017600002D14020005D01E04120005D012801D050
:10177000012070BD002D03D102213E2001550EE055
:10178000042D03D102213F20015508E0082D03D18B
:1017900002214020015502E0022141200155012291
:1017A0002946206800F0ACFB1A492068884207D01F
:1017B00019492068884203D018492068884201D11D
:1017C000012000E00020002806D02068406C0121A4
:1017D000C9030843216848640E492068884203D041
:1017E0000F49206888420CD1206880684607760F30
:1017F000062E0CD02068006801210843216808608B
:1018000005E0206800680121084321680860002085
:10181000AFE70000002C01400044014000480140B7
:1018200000040040F8B504460D46174680200059D4
:1018300020283AD1002D01D0002F01D10120F8BD80
:1018400001210903A068884208D12069002805D138
:10185000E807C00F002801D00120F0E70120206632
:10186000002060663A462946204600F0B3FD064651
:10187000002E18D1206E012814D110202168086292
:1018800000BF00BFEFF310800090012000F072FE57
:10189000206800681021084321680860009800F063
:1018A00069FE00E001263046C9E70220C7E70000D4
:1018B00070B504460D460B492068884210D10A488D
:1018C00005800120094908700949C878FEF7A4FE7F
:1018D00008490860FF22013205490748FFF7A2FFC7
:1018E00070BD000000380140060000200800002004
:1018F000F80000200C000020F801002010B504467C
:101900000749206888420AD108202168086202201D
:1019100021680862C20103490348FFF783FF10BD35
:1019200000380140F8000020F8010020F0B585B033
:1019300004462068C5692068066820688768E3480F
:1019400028400390039800280FD120202840002829
:101950000BD020203040002807D0A06E002802D0F5
:101960002046A16E884705B0F0BD039800287DD0C1
:10197000F807C00F002803D1D54830400028F6D022
:10198000E807C00F00280DD0FF20013030400028AC
:1019900008D00120216808628420005901210843F1
:1019A000842108510220284000280CD0F807C00FDD
:1019B000002808D0022021680862842000590421F0
:1019C0000843842108510420284000280CD0F8073F
:1019D000C00F002808D00420216808628420005924
:1019E000022108438421085108202840002810D0F3
:1019F00020203040002803D1F807C00F002808D06D
:101A000008202168086284200059082108438421A5
:101A100008510120C002284000280ED00120800675
:101A20003040002809D00120C002216808628420CB
:101A3000005920210843842108518420005900289E
:101A400054D020202840002809D0202030400028F1
:101A500005D0A06E002802D02046A16E88478420C1
:101A60000059029020688068402100E03FE0084073
:101A7000402804D0282102980840002830D0204671
:101A800000F036FC2068806840210840402823D1BF
:101A900000BF00F069FD0190012000F068FD2068A2
:101AA00080684021884321688860019800F05FFDCC
:101AB00000BF606F00280BD08648616F4863606F7D
:101AC000FEF731FE002811D0606F416B88470DE0B2
:101AD0002046FFF713FF09E02046FFF70FFF05E060
:101AE0002046FFF70BFF0021842001513BE7206EC9
:101AF00001287DD110202840002879D010203040C6
:101B00000028FAD0102021680862206880684021EF
:101B1000084040286ED1606F0068406880B2019034
:101B20000198002863D05820015B019881425EDD56
:101B30005A2101980853606F806920284CD000BF5B
:101B400000F012FD0090012000F011FD20680068F7
:101B5000FF210131884321680860009800F007FDEB
:101B600000BF00BF00F000FD0090012000F0FFFC6E
:101B7000206880684008400021688860009800F074
:101B8000F6FC00BF00BF00F0EFFC0090012000F069
:101B9000EEFC2068806840218843216888600098B6
:101BA00000F0E5FC00BF20218020015100202066CC
:101BB00000BF00F0D9FC0090012000F0D8FC2068A4
:101BC00000681021884321680860009800F0CFFC6D
:101BD00000BF606FFEF77EFD022060665820025B4A
:101BE0005A20005B101A81B22046FFF761FEBAE668
:101BF0004FE0FFE75820015B5A20005B081A80B2D3
:101C000001905A20005B002842D0019800283FD064
:101C100000BF00F0A9FC0090012000F0A8FC2068A3
:101C20000068FF212131884321680860009800F096
:101C30009EFC00BF00BF00F097FC0090012000F068
:101C400096FC206880684008400021688860009801
:101C500000F08DFC00BF2021802001510020206673
:101C6000A06600BF00F080FC0090012000F07FFC27
:101C7000206800681021884321680860009800F0FF
:101C800076FC00BF0220606620460199FFF710FE37
:101C900069E68020284000280AD0802030400028B3
:101CA00006D0E06E002802D02046E16E88475AE652
:101CB00040202840002807D040203040002803D092
:101CC000204600F055FB4EE600BF4CE60F08000032
:101CD000200100049521000870477047704700BF3D
:101CE000FEE7000008B500BF1648406901218905DC
:101CF00008431449486108464069012189050840A4
:101D0000009000BF00BF00BF0E4840694911084362
:101D10000C49486108464069012149040840009087
:101D200000BF00BF00BF074840694900084305499C
:101D3000486108464069012189040840009000BFBD
:101D400000BF08BD0010024000B589B00020079018
:101D500008901C216846FEF7B8FA1A481A4908602C
:101D600000204860002118488160FF215031C16087
:101D7000002101618161FFF79AFC002801D0FEF784
:101D8000A6FC0020079008906020009000200190A1
:101D900002900490042269460B48FFF703FC0028D8
:101DA00001D0FEF794FC002269460748FFF7FAFBD2
:101DB000002801D0FEF78BFC0348FFF7B5FB09B004
:101DC00000BD000000040040B000002000BFFEE79E
:101DD0007047704710B5FEF7ABFE10BD00B595B06B
:101DE000302109A8FEF771FA0020059006900790AF
:101DF0000890019002900390049011200990012016
:101E00000A900E9010200F9002201190C1031291A1
:101E1000C10413910021149109A8FFF7A3F8002829
:101E200001D0FEF754FC0720059002200690002008
:101E300007900890012105A8FEF792FF002801D025
:101E4000FEF745FC202001901020049001A8FEF729
:101E5000DFFE002801D0FEF73AFC15B000BD704748
:101E600010B50268214B984202D0214B984205D10F
:101E700070241346A3431A464B681A431B4B9842DF
:101E80000BD01B4B984208D01A4B984205D01A4BE6
:101E9000984202D0194B984206D1032424021346DB
:101EA000A3431A46CB681A4380241346A3434C69C4
:101EB00023431A4602608B68C3620B6883620B4B34
:101EC000984205D00C4B984202D00C4B984201D15D
:101ED0000B690363012343610369DB07DB0F002BFD
:101EE00003D003695B085B00036110BD002C014057
:101EF0000004004000200040004401400048014030
:101F000070B5CD06ED0E0124AC402346046A9C4317
:101F10000462046ACE06F60E1546B5402C430462F0
:101F200070BD000070B5026A056A6D086D0005623B
:101F30004368846970262546B5432C46A408A4004E
:101F40000D682C4302261546B5432A468D682A4360
:101F5000184DA84200D107E0174DA84200D103E078
:101F6000164DA8420AD100BF08261546B5432A4699
:101F7000CD682A4304261546B5432A460D4DA8428E
:101F800005D00D4DA84202D00C4DA8420CD1FF2621
:101F900001361D46B5432B4676001D46B5432B46FC
:101FA0004D692B438D692B43436084614D684563C4
:101FB000026270BD002C0140004401400048014015
:101FC00070B5026A056A1026B543056243688469E4
:101FD000072636032546B5432C46032636022546FA
:101FE000B5432C460D682D022C4320261546B543DB
:101FF0002A468D682D012A431A4DA84200D107E0D8
:10200000194DA84200D100BF184DA8420BD10AE0DB
:1020100080261546B5432A46CD682D012A43402621
:102020001546B5432A460F4DA84205D00E4DA8428D
:1020300002D00E4DA8420ED10126B6021D46B54370
:102040002B4676001D46B5432B464D69AD002B430C
:102050008D69AD002B43436084614D6885630262E6
:1020600070BD0000002C01400044014000480140C8
:1020700070B5026A056AFF260136B54305624368FA
:10208000C46970262546B5432C46A408A4000D68F3
:102090002C43012676021546B5432A468D682D024B
:1020A0002A431B4DA84200D107E01A4DA84200D197
:1020B00000BF194DA8420CD10BE00126F6021546CF
:1020C000B5432A46CD682D022A4376101546B543FE
:1020D0002A460F4DA84205D00E4DA84202D00E4D03
:1020E000A8420ED1012636031D46B5432B46760085
:1020F0001D46B5432B464D692D012B438D692D019E
:102100002B434360C4614D68C563026270BD00002B
:10211000002C0140004401400048014070B5036AB2
:10212000056A01263603B54305624468C26907267D
:1021300036031546B5432A46032636021546B543EF
:102140002A460D682D022A43012676031D46B54313
:102150002B468D682D032B430B4DA84205D00B4D0C
:10216000A84202D00A4DA84207D10126B60325464F
:10217000B5432C464D69AD012C434460C2614D68A6
:102180000564036270BD0000002C01400044014062
:102190000048014070B505466C6A00215A20015381
:1021A000522001532046FFF7A9FB70BDF8B5054644
:1021B0006C6AE66F8020075920688068802108409B
:1021C000802807D1212E05D100215220015320461D
:1021D00000F0E9F82068806840210840402807D1D5
:1021E000222F05D100215A200153204600F080F80B
:1021F0008420005910210843842108512046FFF70C
:102200007DFBF8BD70B505466C6AA86920284DD0E5
:1022100000215A20015300BF00F0A6F90646012014
:1022200000F0A5F920680068FF210131884321688A
:102230000860304600F09BF900BF00BF00F094F941
:102240000646012000F093F92068806840084000AD
:1022500021688860304600F08AF900BF00BF00F0B6
:1022600083F90646012000F082F920688068402149
:10227000884321688860304600F079F900BF20214A
:1022800080200151206E012810D100BF00F06CF9B0
:102290000646012000F06BF9206800681021884391
:1022A00021680860304600F062F900BF00206066D7
:1022B000206E012805D15820015B2046FFF7F8FA6F
:1022C00002E02046FFF708FD70BD70B505466C6A58
:1022D00001206066206E012806D15820005B41086D
:1022E0002046FFF7E5FA02E02046FFF7F6FC70BD56
:1022F00070B5044600BF00F037F90546012000F034
:1023000036F920680068FF21213188432168086080
:10231000284600F02CF900BF00BF00F025F9054663
:10232000012000F024F920688068400840002168FE
:102330008860284600F01BF900BF206E012810D1EC
:1023400000BF00F011F90546012000F010F92068E7
:1023500000681021884321680860284600F007F9CA
:1023600000BF20218020015100202066A06670BDA2
:1023700070B5044600BF00F0F7F80546012000F0F4
:10238000F6F82068006840218843216808602846E4
:1023900000F0EDF800BF2020E0670020E066204656
:1023A000FFF79CFC70BD70B5044600BF00F0DCF880
:1023B0000546012000F0DBF820680068C021884352
:1023C00021680860284600F0D2F800BF2020E067AE
:1023D00070BD0000F8B504460E46154666655820E7
:1023E0000553002184200151222180200151606F7A
:1023F00000281DD02B48616F88622B48616FC8622E
:102400002A48616F08630020616F4863236819469A
:1024100024312B46626D606FFEF729FA002807D041
:102420001021842001512021802001510120F8BD7C
:102430002069002811D000BF00F096F8074601205F
:1024400000F095F820680068FF21013108432168F9
:102450000860384600F08BF800BF00BF00F084F839
:102460000746012000F083F82068806801210843B6
:1024700021688860384600F07AF800BF00BF00F09D
:1024800073F80746012000F072F820688068402148
:10249000084321688860384600F069F800BF0020D2
:1024A000C5E7000005220008CB220008AD21000886
:1024B00010B50248FFF73AFA10BD0000F8010020FD
:1024C000F8B582B28BB2040C0D0C104658430021B3
:1024D00026465E43370C36048019794116466E4312
:1024E000370C36048019794126466E438919F8BDA8
:1024F00010B5002819DB1A4A03231B02D2188308DF
:102500009B00D2588307DC0EFF23A3409A438B071E
:102510001B0E8407E40EA3401A43114B032424022C
:102520001B198408A4001A5118E00E4A03071B0F58
:10253000083B9B089B00D2588307DC0EFF23A34077
:102540009A438B071B0E8407E40EA3401A43054BE6
:102550000407240F083CA408A4001A5110BD000071
:1025600000E100E01CED00E0EFF31080704780F325
:102570001088704780F3108870470000FEF7E4FA77
:10258000FFF72CFCFFF7AEFBFFF7DEFB04210B4847
:10259000FFF7D8F800210948FFF7D4F832220221CA
:1025A000064800F00DF850220121044800F008F818
:1025B00002E03220FEF7A8F9FBE70000B00000209F
:1025C000F0B585B005460F461646642E01DBEC6873
:1025D00017E0002E01D1002413E03046FEF71CF86E
:1025E0000F490090FDF724FF0290E968481CFEF7B0
:1025F00013F80190029900F015F80390FDF7C8FF59
:102600000446F807C00F002801D028684463022060
:102610003840022801D12868846305B0F0BD00006D
:102620000000C84270B5420064414B005C41120E8C
:1026300039D01B0E38D0FF2A3CD0FF2B3AD04002B5
:102640004902400A490A060045184E43000A090A91
:10265000D2184843ED017F3A0104731A4019190C4E
:102660004318990F04D001215B0849075B1A521CDB
:10267000D80904D3401CF50301D19D0607D0FF2AD9
:1026800008D2D50506D0E4072043401970BD0125C6
:10269000A843F4E7002A01DCE00770BD2402FF2014
:1026A0002043C00570BD1B0EFF2A03D0FF2B01D0B5
:1026B000E00770BDFF2645003606B54206D84D003E
:1026C000B54203D8D218FF2A00D0E7E7004870BD12
:1026D0000000C07F02030405060708090A0B0C0D61
:1026E0000E0F10100102030405060708090A0B0C5F
:1026F0000D0E0F1000000000000000000102030496
:102700000607080900000000010203048182838497
:1027100085868788898B8C8D8E8F919293959697DD
:10272000999A9C9D9FA0A2A3A5A7A8AAACAEB0B25F
:10273000B3B5B7B9BCBEC0C2C5C7C9CCCED1D4D75A
:10274000D9DCDFE2E6E9ECF0F3F7FAFE6C270008EB
:102750000000002020000000F40000088C27000882
:1027600020000020080900001001000800000000FF
:102770000000000000000000000000000000000059
:0C278000040000000100000000127A00BC
:04000005080000B13E
:00000001FF
