:020000040800F2
:10000000A807002055010008652E0008252A0008D1
:1000100000000000000000000000000000000000E0
:10002000000000000000000000000000EB2E0008AF
:100030000000000000000000E92E0008ED2E00087E
:100040006701000800000000670100086701000860
:1000500067010008670100086701000867010008E0
:10006000000000006915000867010008670100082A
:100070006701000867010008670100080000000030
:100080006701000800000000000000006701000890
:100090000000000067010008670100086701000810
:1000A0000000000067010008000000006701000870
:1000B00000F002F800F03EF80CA030C80838241810
:1000C0002D18A246671EAB4654465D46AC4201D190
:1000D00000F030F87E460F3E0FCCB6460126334284
:1000E00000D0FB1AA246AB4633431847843A0000BF
:1000F000A43A0000103A02D378C878C1FAD852075F
:1001000001D330C830C101D504680C6070470000CD
:100110000023002400250026103A01D378C1FBD823
:10012000520700D330C100D50B6070471FB51FBD0B
:1001300010B510BD01F0AAF81146FFF7F7FF03F064
:10014000DDFA01F0C2F803B4FFF7F2FF03BC01F0DF
:1001500015F900000748804707480047FEE7FEE71B
:10016000FEE7FEE7FEE7FEE704480549054A064BC1
:10017000704700006F2F0008B1000008A8010020A0
:10018000A8070020A8030020A8030020FEB505460C
:1001900010460C46184373D0AE468C460020AD1A6C
:1001A00001469C4167D36646002701243D46B61AA6
:1001B0009D4102D313463A462124654676462F04D4
:1001C000360C3E432D0CB61A9D4104D3150C1B046E
:1001D0002B4312041034654676462F06360A3E43FA
:1001E0002D0AB61A9D4104D3150E1B022B43120291
:1001F0000834654676462F0736093E432D09B61A60
:100200009D4104D3150F1B012B431201241D65468C
:100210007646AF07B6083E43AD08B61A9D4104D3F3
:10022000950F9B002B439200A41C65467646EF0772
:1002300076083E436D08B61A9D411AD392185B4169
:10024000641C16E00018764665464941B71A9D4180
:100250000191009009D36046B11A98418E468446B8
:10026000009801990025401C6941DD0752082A4386
:100270005B08641EE6D57246634603B0F0BDFFE737
:1002800000200146C046C0462A462346F5E701E065
:1002900004C0091F0429FBD28B0701D50280801CF2
:1002A000C90700D00270704700290BD0C30702D0E5
:1002B0000270401C491E022904D3830702D5028024
:1002C000801C891EE3E70022EEE70022DFE7002220
:1002D00003098B422CD3030A8B4211D300239C4683
:1002E0004EE003460B433CD4002243088B4231D3FB
:1002F00003098B421CD3030A8B4201D394463FE08F
:10030000C3098B4201D3CB01C01A524183098B42EE
:1003100001D38B01C01A524143098B4201D34B01D7
:10032000C01A524103098B4201D30B01C01A52413A
:10033000C3088B4201D3CB00C01A524183088B42C1
:1003400001D38B00C01A524143088B4201D34B00AA
:10035000C01A5241411A00D201465241104670471C
:100360005DE0CA0F00D04942031000D34042534021
:1003700000229C4603098B422DD3030A8B4212D3E1
:10038000FC22890112BA030A8B420CD38901921113
:100390008B4208D3890192118B4204D389013AD050
:1003A000921100E08909C3098B4201D3CB01C01A25
:1003B000524183098B4201D38B01C01A5241430938
:1003C0008B4201D34B01C01A524103098B4201D326
:1003D0000B01C01A5241C3088B4201D3CB00C01A93
:1003E000524183088B4201D38B00C01A5241D9D2AB
:1003F00043088B4201D34B00C01A5241411A00D22C
:100400000146634652415B10104601D34042002B27
:1004100000D54942704763465B1000D3404201B5A6
:100420000020C046C04602BD7047704770470000BC
:100430000246C80FC00781434B0030B54B405B00FC
:100440009B0D20D01923DB06C91801231B059942F7
:1004500020DB0324A40704251346AB400BD3002B59
:1004600004D1EB0613409B00E34204D4012464074B
:10047000002312195941FF231B0599420BD2C900D1
:100480000143500F09E0CB0204D5014308030243A6
:1004900005D0054830BDFF21C905084330BD0846D9
:1004A00007210905884330BD0000C07FF0B50C4628
:1004B000871A9C410D46861A9D4103D2C01BA1415B
:1004C000D21963410D0D1F0DC94EEC1BAE435CD01C
:1004D0007F057F0D0026002F51D02D05AC46A94386
:1004E000DD020123ED0A1B051D4320231B1B24D421
:1004F0001746E740381871412F46E740CC199D4018
:100500002818314661410C0D27D161449A4013D51A
:100510000023401C594152000ED1400840000122E6
:100520004B005205D34207D305204007C14201D5F5
:10053000B04900E0B0493046F0BD6B00002A00D061
:1005400001229A181F23203C1B1B01D5002302E027
:10055000E540281871410C0DD7D001242405091954
:10056000C407CD0740084908E40F28436144002C24
:10057000D5D00024401C61419A40D0D1CDE76A0516
:10058000520DD9D1C90FC907D5E79C4D4E0000289F
:1005900001D0012400E0002434195F00002A01D0BA
:1005A000012600E00026BE19954FAC420CD8AE42A1
:1005B0000AD8B44206D001256D05EC42BCD01046E5
:1005C0001946F0BD9942FCD000203946F0BDF0B587
:1005D0001FB40C460F46811A9F412546861A9D413D
:1005E00006D20125ED076F40401ABC4152187B41ED
:1005F000210D1E0D8D1BAC467D4D8D437ED07505A6
:100600006D0D7CD00D05AE46AC431B031B0B794D25
:1006100052429D41202366469B1B14D31746F74048
:10062000381800260090744160462F460741E419AF
:1006300000989D402818664116D4714671189A405A
:1006400025D5012320E093182A466A415200002B49
:1006500000D0521C1E23203E9B1B002B61DD354128
:10066000EE1728186641E8D5001876415B1C9A40C1
:1006700000D3401C4B05F3181524E34010D3002B86
:1006800052D071467118D30FC01802D3491C05B05F
:10069000F0BD0123DB079A42F9D140084000F6E79C
:1006A00001225205B21801D1002853D00123CC0AEF
:1006B000DB029943891E002A08D1020C03D0020CE8
:1006C0000004103902E00246002020390023550BB7
:1006D00005D112020823550B01D152010D23550CEF
:1006E00001D112011B1DD50C01D192009B1C150DCF
:1006F00001D152005B1C2025EE1A01E02CE022E023
:100700000546F54015439840CA1AE10769181305D4
:10071000C918002ABBDA032040070818C10FC9070F
:100720000FE071466118B2E7F10740080843711005
:1007300071444A000CD001235B059A42A7D2C90F2D
:10074000C9070020A3E74905490D26D1002001E093
:100750000028F4D100219AE7284D6600002801D036
:10076000012100E0002171185F00002A01D001265C
:1007700000E00026BE19224FA94210D8AE420ED882
:10078000B14208D001256D05E94206D01946A802FC
:10079000414010467BE79C4201D0214677E700208C
:1007A000394674E710B50C465C4005D50124E407D2
:1007B0006340FFF70CFF10BDFFF778FE10BD30B4AB
:1007C0000C465C4004D50124E407634030BC6DE670
:1007D00030BCFCE670B50124E40761400D465D4085
:1007E00002D4FFF763FE70BD6340FFF7F0FE70BDFB
:1007F000FF0700000000F0FF0000F07F0000E0FFB6
:100800000000F87FF0B5F94D0C091E092C402E4070
:100810002F468BB0A7437DD0B543FCD0002E7AD0B5
:10082000002CFCD00D465D40ED0F2543AC1BFF2591
:10083000AD0464190894C502440DC9022143500D4A
:10084000DC0204430120C00701430443D2020191AA
:10085000200C110C00958C46010423468B430A9111
:1008600061460904E24D8A430991010A7D44491910
:100870008039097805464D4301266D18F605751B2C
:100880006943C90C640B891C4C436418B5012C1BCB
:10089000250C2E04B4434C434D43210C691889099F
:1008A0000591009DE90701D00121C90704912C465B
:1008B00001996708CD072F434C08059DE10B4D4377
:1008C0002D0C29466646754302950D4645432E4636
:1008D000029D7D1BB44100950D465D4301942C0C97
:1008E0002F040D465543AE462D0C3D43029503940F
:1008F0007546049C2D04641B049406D2029C039D3F
:10090000641C002675410395029401AC70CC009FD5
:100910007D1B01E03EE162E1B441090400950791CD
:1009200001940599A4086143090C0C464443650BE6
:10093000E7040C4666467443A646640B3C430395A5
:1009400002947446049DE4042C1B049406D2029C79
:10095000039D641C002675410395029401AC70CC84
:10096000009F7D1BB44101940C465C430095650FCC
:10097000E7000C465443A646640F3C43039502949B
:100980007446049DE4002C1B049406D2029C039D33
:10099000641C002675410395029401AC70CC009F45
:1009A0007D1BB441AE09AF06049DC900AD092F43BC
:1009B000049DA406AD060495079D3443691807916C
:1009C000059DE10B4D432D0C294666467543029566
:1009D0000D4645432E46029D7D1BB44100950D46B4
:1009E0005D4301942C0C2F040D465543AE462D0C4F
:1009F0003D43029503947546049C2D04641B0494A6
:100A000006D2029C039D641C002675410395029446
:100A100001AC70CC009F7D1BB44101948C05069401
:100A2000079C890A611800950791019C0599A40803
:100A30006143090C0D464543680BEF040D466446BF
:100A400065436C0B3C43049FED047D1BAC4602D216
:100A50000025641C6841009E019D371B85410846A6
:100A6000584301950C46460FC5005443600F284378
:100A70006546E4002C1B02D20025401C6E41019DFE
:100A80003F1AB5412846BD09800628438446A0097F
:100A9000BF064E020699A40676180743079D00205C
:100AA00068410A99079019430020099B009060460D
:100AB000FF1913434041E20F64003A43A446044641
:100AC000D71A8C41A04203D90120009020463A4613
:100AD000C70F941840416246D20F22436446640017
:100AE0000494009CBE466400D71AA44604460297AC
:100AF0008C417746002F01D1A04204D96046401CAA
:100B00008446029A2046C40FA64694184041049A8F
:100B10000546D20F224364466400D31A8D417146C4
:100B2000002901D1A84202D928461A46641C104364
:100B30000122002800D0164361020020079B89197A
:100B400004465C410223002C02DB49181346644131
:100B5000089DCE0A2D145D194B056705E10A2C0589
:100B60000D1908993E43C9076940002B08D09340EE
:100B700006D30022761C5141002B01D17608760065
:100B80001C4A002D43DB154241D0AA433FD03046DA
:100B90000BB0F0BD06180D464D41174C7642AC41E6
:100BA0001AD395181C465C41134A6D42A24113D3D7
:100BB000012252054C00D4420AD15C00D4420BD031
:100BC0004B4002D592021143E2E749004908DFE7B2
:100BD0005940C90FC90718E000200849D8E705485F
:100BE00001420DD10342F7D0F2E700000000FF07F9
:100BF000FC3100000000F07F0000E0FF0000F87F03
:100C0000114859400143C01241400020C0E7012370
:100C1000089A9B069A4205DC032252078918C90FDD
:100C2000C907B5E7052252078918074A1143D212AE
:100C30005140ADE770B515461C4602460B462846A6
:100C40002146FFF7DFFD70BDFFFFFF7F0121C905D2
:100C50000123411842001B06D3185B0E0AD0C110B5
:100C60000722D206891840075242D14201D55200CC
:100C700089187047090208D50146002A03D0C10F20
:100C8000C9070020704710467047420202D000207A
:100C900002497047072109050143F4E70000F87F86
:100CA000F0B5FF252D04C609C209FF2704462E40D2
:100CB0000137CB093E4348402A402B400746002AD3
:100CC0006BD0002B69D0AA4267D0AB4265D0002818
:100CD00000DA32460125ED0529432C4309022002A2
:100CE000090AD21A4B0C7F24E31A434C000A7C44B5
:100CF000E35C7D242404121914145B00A2188842BA
:100D000001D3521C00E0400049420C465C432411D0
:100D10005C43DB016415E318040A5C43C502200D43
:100D20000C4644436419250A5D432303EC0C0D462D
:100D3000654300030019EB184C42A34201D35B1832
:100D4000401CD4052018002B07D05B00C91804D321
:100D5000401C002901D1400840003F2189048A42FB
:100D600009D3002A08DC1106090F04D00321490722
:100D70004018C00FC007F0BD0122410012068918BB
:100D80007F2252069142F6D205214907C84201D579
:100D90009010F0BDFF20C005F0BD002F00DA3246F4
:100DA0001648AA4207D2AB4205D21902090E17D043
:100DB000F80FC007F0BDFF2563002D06AB42F9D840
:100DC0004900A942F6D8AB4201D1A942F2D0A942CA
:100DD00001D1002101E061004908D0050843F0BDC0
:100DE0001102090EFBD0FF200243D005F0BD0A46D8
:100DF0000146104654E70000FA2D00000000C07FB5
:100E00000102C21504D00123DB071943002A0ADBC3
:100E10009E239A1A02D40846D0407047FF22410010
:100E20001206914201D900207047C017C043704795
:100E30001F22030C02D10F2200041CD0030E01D18B
:100E40000002083A030F01D10001121F830F01D1E4
:100E50008000921E002801DB4000521ED20551186E
:100E6000021251181922904004D3491C002801D1C4
:100E70004908490008467047C10FC90700D04042E1
:100E8000012292071143D3E701218907D0E700002F
:100E900010B5FF22C30D134009D05A4007D091422C
:100EA00005DA5C42A14202DDC905081810BDC40F75
:100EB000E407002B06D0002A06D0002902DBFF2021
:100EC000C0050443204610BD4102FCD0004810BDBF
:100ED0000000C07F10B500F089F9006810BD10B5A2
:100EE000044600F083F9046010BD1F22030C02D1F8
:100EF0000F22000402D0030E03D004E000200146BC
:100F000070470002083A030F01D10001121F830F3E
:100F100001D18000921E002801DB4000521E120504
:100F200051184205C012411810467047C10FC90739
:100F300000D04042012292071143D6E701218907E0
:100F4000D3E70000F0B58B4C0F09254689B0BD43AF
:100F50007BD01D092646AE43FAD00E465E402740A0
:100F6000F60F3E43254071D024012142FBD0FF24DF
:100F7000AD19A4042D1B039501252D05DB02DB0A09
:100F8000C9022B43C90A29431E010901040F130F8B
:100F9000050121431701880B820391432D098C46DB
:100FA000A90B1E438A039543B30B9A0396433F094B
:100FB000BA0B9403A74302962E467E430497B64687
:100FC0004E19D7190C460196544305977E43371B9B
:100FD0007646BF1B3601B646BE0B361900967646DE
:100FE000BC043719009C01D3641C00946400002FDA
:100FF00001D001263443029E049F754366467E431A
:101000000496760034196E0034190094029C019EF7
:101010001C196643751BAE46069465464519059C2A
:1010200005956C43594375460891691A0191049ED0
:1010300001465143A41B0491611A009C0791E106EB
:1010400005D061090122114302E072E06EE06109FE
:10105000089D00272C0A2D066918049D7C412A0A48
:101060002D066918019D6241AC0DAD026D18544109
:10107000079A910D920255196141029A64465843AC
:101080005443069B059A5A43121A131B9A0E9B014E
:101090005B187A41010B0005C3185141220A200652
:1010A00044195A419A4200D2491C0120400281420F
:1010B00003D315230226F64302E014230326F64346
:1010C0002020C51AA9401746AF40DA400A432046FF
:1010D0000399D8400914731819055118039A384315
:1010E000D2075140AC4009D00122944006D30022DF
:1010F000401C5141002C01D1400840001E4A93423F
:1011000012D3012203989206904207DB0520400784
:1011100009181A480143C012414004E00320400767
:101120000818C10FC907002009B0F0BD0020F10761
:10113000FAE705180C464C4111486D42A04115D301
:1011400094181A465A410E48644290410ED3012029
:101150004A004005824209D35A00824206D35940D0
:10116000C90F084AC90700201143DDE700200649DE
:10117000DAE700000000FF07FE070000FFFFFF7F27
:101180000000E0FF0000F07F0000F87F70B505462A
:101190004800440D124B0020002C0AD0634008D0B8
:1011A0009A4206DA6642B24203DD12054019514105
:1011B00070BD002C08D0002B09D0C90FC907002A28
:1011C000F6DB084A114370BDC90FC90770BD284638
:1011D0000A03104302D00020034970BD284670BDA9
:1011E000FF0700000000F07F0000F87F0048704714
:1011F00048010020F8B5224C4E00069DA6420AD8B0
:10120000A64201D1002806D15E00A64203D8A6421C
:101210000AD1002A08D00D24240425422CD02946C6
:10122000002000F05AF8F8BD0C461C430CD499423B
:1012300002D0EFF30080F8BD904202D0EFF30080BF
:10124000F8BDEFF30080F8BD09242407E5008B42C8
:1012500006D0EFF30080A043591A06D2284304E0D9
:10126000101A05D3EFF30080A04380F30088F8BD87
:10127000EFF30080A043F1E7009500F045F8F8BDDA
:101280000000E0FF00487047480100207546FFF766
:10129000F9FFAE46050069465346C008C0008546C2
:1012A00018B020B5FEF760FF60BC00274908B646BD
:1012B0000026C0C5C0C5C0C5C0C5C0C5C0C5C0C565
:1012C000C0C5403D49008D46704710B50446C04634
:1012D000C0462046FEF737FF10BDC80212D54803AE
:1012E000400F002804D0C803C04301218840704744
:1012F000EFF300800001000903210907084380F390
:10130000008870470020704710B500200249029AFB
:1013100000F004F810BD00000000F87F10B50C4686
:101320001107090F092904D00A290AD008290CD16C
:1013300004E011460820FFF7D0FF06E0510606D56D
:1013400001E0510601D50120C007214610BDD1069C
:1013500007D501010909CC084907000E000604431E
:1013600009E0410F20024907000A0143200E000650
:101370001D22D14101430846E7E70000014918203A
:10138000ABBEFEE726000200704710B50146406A7A
:10139000826B50231A420AD1816B012252021143FF
:1013A00081630168CA681205920F05D020E0006BC6
:1013B000026B0846904710BD827E002A18D10A6849
:1013C000120715D58A6853070122002B09DB4B68E9
:1013D0000C24A3434B60816B130299431143816337
:1013E00006E0816B202319438163C16B1143C16304
:1013F00000F072F910BD10B5406A816B40221143B4
:101400008163C16B04221143C16300F067F910BD11
:1014100010B5406A00F061F910BD0000F8B504464F
:1014200000200090206881688907890F012905D173
:101430000168C90731D1C16809042ED48168184AEE
:1014400010261140012500291AD1816829438160A5
:10145000154814490068FEF73AFF00E0401E00906E
:101460000028FBD100F030FC074611E000F02CFC16
:10147000C01B02280CD920680068C043C00707D0F1
:10148000A06B3043A063E06B2843E0630120F8BD0C
:1014900020680068C043C007E8D10020F8BD000004
:1014A0001700008040420F0024000020FEB50D46CA
:1014B0000646AC21684601713321417100218171DA
:1014C0006424032301AA70212248009400F032FD15
:1014D000002801D00120FEBD502000F011FB0623A2
:1014E0001D4A70211B48009400F09CFC002801D08C
:1014F0000220FEBD184A1078000601D50320FEBD6B
:1015000050789178000309010843D1780B09090745
:101510000C0B1179184309020C4351790C43FFF766
:10152000B3FC1327FF433946FFF7B2FC0B4902F027
:10153000C5F928602046FFF7A7FC3946FFF7A8FC4D
:10154000074902F0BBF9074902F010FA30600020A9
:10155000FEBD0000AC000020100000200000C842CA
:10156000000048430000484210B5024800F01AFA53
:1015700010BD00006800002010B504460068054951
:1015800040181421FEF7A3FE800020640248E063A7
:1015900010BD0000F8FFFDBF0000024030B5056C33
:1015A0000124AC40C56B6C60046863604368102B19
:1015B000036803D099600068C26030BD9A6000681B
:1015C000C16030BD72B6FEE7F8B500250446203490
:1015D0000095227D012A39D00122227503689E6878
:1015E000760767D4384F4E68BE424DD09E6A0F785A
:1015F000BA4016439E620123C26A1B079A421FD05B
:10160000012A1DD0022A1BD0032A19D0042A17D080
:10161000052A15D0062A13D0072A11D002688B6834
:1016200056697607760FB3420AD05369DB08DB00B0
:101630005361006842690B7A5B075B0F1A43426192
:101640000A68102A04D0112A02D038E00220F8BD1E
:101650001E488368102A07D0012292051343836035
:101660000868102803D02AE00122D205F6E71948BD
:1016700017490068FEF72BFE0A21484300E0401E90
:1016800000900028FBD11AE0986A0E78B24090438F
:1016900098620968102901D0112910D10B4882687D
:1016A000102904D0012189058A43826007E00121C5
:1016B000C905F9E7816B20221143816301250020D0
:1016C00020752846F8BD00000110000000270140E9
:1016D00040420F0024000020704770477047000010
:1016E000F8B500260446002805D0A06B2546203515
:1016F000002802D007E00120F8BD0020E063287533
:10170000204600F0A9F8A06B1022C006002870DB6C
:101710002068816849076CD4A16B130199430223A7
:101720001943A16381688907890F012905D10168DF
:10173000C9070FD1C16809040CD4C16818239943A3
:10174000A3681943C160206801696368890089083A
:10175000194301612068C1683D4B1940C160207E7A
:10176000617E8003C9030843A17E4B031843A36A2B
:10177000012B02D001231B0300E000231843E36880
:1017800018432369022B09D0002318432B79E57EE7
:101790005B0018430123012D02D00AE00423F4E783
:1017A000002927D0A16B20252943A163E16B1943B0
:1017B000E163E1690D46FF3DC23D02D0256A294340
:1017C00008432168CD680543CD600125E16A2D07F6
:1017D000A94213D0012911D002290FD003290DD01D
:1017E00004290BD0052909D0062907D0072905D0DF
:1017F00010E028E0012109040843DAE721684D6977
:10180000ED08ED004D6121684D69A78D7F077F0FC1
:101810003D434D612168C9680E4D2940814207D181
:101820000020E063A06B80088000401CA06308E0FB
:10183000A06B022188431043A063E06B1843E06370
:1018400001263046F8BDA06B1043A063F8E7000006
:101850001902FEFFE7FF3F8370B586B005461421ED
:101860006846FEF732FD2349286888423FD1224965
:101870008A69401502438A618A69024005924A6971
:10188000000202434A614A69024005924869012206
:101890001043486148690621104005900022092044
:1018A00000F070FC092000F061FC03200090019022
:1018B0000026092069460296C00600F033F90F4859
:1018C0000F4C41C48020266060604000A060800012
:1018D000E06020202061000260610948083C00F0BF
:1018E000AFF8002801D0FFF76DFE2C63656206B0EB
:1018F00070BD0000002401400010024008000240BA
:1019000068000020F7B5044600680025806840079D
:101910003DD426462036307D01280AD00127377570
:10192000607E012807D02046FFF778FD050002D031
:101930002EE00220FEBDA06B16490840FF210131B8
:101940000843A0630020E0633075216B1248886271
:10195000216B1248C862216B1148086321681C2062
:101960000860206841681022114341602068C16806
:101970003943C1602168206B4031029B019A00F01D
:1019800089F82068816804221143816000E0022503
:101990002846FEBDFEF1FFFF8B130008111400085E
:1019A000F7130008F0B4C16B0D6801680C680422DD
:1019B000066C1346B3402B420DD063070BD50B6862
:1019C0009B0602D40B6893430B60016C8A40C16B89
:1019D0004A60C16A19E00227B74002462F4001233E
:1019E0002032002F15D0A70713D50C68A40604D405
:1019F0000C680A25AC430C605370036C02219940BB
:101A0000C36B596000211170816A002916D0F0BCA7
:101A100008470827B7402F4210D024070ED50C687E
:101A20000E25AC430C60046C1946A140C46B616088
:101A30008363537000211170016BE6E7F0BC7047BF
:101A400070B5040021D002212046203005464170A7
:101A5000226811680E48A36801406068266918432F
:101A6000E3683343184363691843A3691843E36980
:101A70001843084310602046FFF77EFD0021A16354
:101A8000012068702970084670BD012070BD0000FB
:101A90000FC0FFFFF8B504468C46203001780025C2
:101AA000012909D00126067041780027012905D0B7
:101AB000077002252846F8BD0220F8BD02214170BA
:101AC000A763206801684908490001606146204613
:101AD000FFF764FDE06A00282068016802D00E224A
:101AE000114306E00A2211430160206801680422C4
:101AF000914301602068016831430160DAE700002A
:101B000070B5044600F0E0F80546601C02D00448B9
:101B10000078241800F0D8F8401BA042FAD370BD1A
:101B200018000020F8B5002303240125BAE02E4652
:101B30009E40B44632407CD00E79B607B60F012ED7
:101B400001D0022E17D186682746B6465E00B74000
:101B500000967646BE43B646CF68009EB7407646AE
:101B60003743876046686746BE430F79FF06FF0F1D
:101B70009F40374347600E79F643B6070ED0C668DC
:101B80002746B4465E00B646B7406646BE43B446F6
:101B90008F687646B74066463743C7600E79B6070A
:101BA000B60F022E14D1DE08B60036180096366A3B
:101BB0005F07B446FE0E0F27B646B7406646BE43E3
:101BC000B4460F697646B74066463743009E376293
:101BD00006682746B4465E00B646B7406646BE4332
:101BE0000F79B446BF07BF0F7646B7406646374306
:101BF00007604E68B603B60F53D02D4FBE692E4313
:101C0000BE61BE699F08F607F60F2A4EBF00BE19D7
:101C10000096B6680F27B4469E07360FB646B74003
:101C20006646BE430927FF06B446B84202D10027E4
:101C300010E036E0204FB84201D101270AE01F4FE3
:101C4000B84201D1022705E01D4FB84201D1032758
:101C500000E005277646B74066463743009EB760EA
:101C6000184EB6684F689643FF0200D51643154FCD
:101C7000BE60FE684F689643BF0200D51643114F01
:101C8000FE607E684F689643BF0300D516430D4F34
:101C90007E603E684F689643FF0300D51643094AAD
:101CA00016605B1C0A681646DE4000D03FE7F8BDB0
:101CB00000100240000001400004004800080048F5
:101CC000000C004800040140014880687047000093
:101CD0001800002070B5024640325378202B1CD1EA
:101CE0001378012B19D00123137024245470046835
:101CF00025689D432560046825681E03B54325605B
:101D0000046825680D432560006801681943016077
:101D1000202050700020107070BD022070BD70B582
:101D2000024640325378202B1BD11378012B18D058
:101D3000012414702423537003681D68A5431D609B
:101D400005682B680F263602B34309021943296040
:101D5000006801682143016020205070002010704D
:101D600070BD022070BD000070B5040006D025468D
:101D7000403568780026002802D005E0012070BDBB
:101D80002E70204600F072F92420687020680168E7
:101D90004908490001600F216068090688432168ED
:101DA000086121688A680120C00382438A60E16873
:101DB0000129A1682FD0212292021143226891604B
:101DC0000121E268C902022A2268536825D08B43A8
:101DD000536021684A68124B1A434A602168CA68F6
:101DE0008243CA60616920690843A1690902084306
:101DF0002168C860216AE06908432168086020689A
:101E00000168012211430160666420206870266326
:101E1000AE70002070BD0143D0E70B43D8E700004F
:101E200000800002FFB5054604464035687883B05F
:101E3000202879D12878012876D001272F70FFF744
:101E400043FF0190012200901923D103204600F0A6
:101E500099FE00283CD1222068701020A87000262E
:101E6000666405986062069860856663618D2F4898
:101E7000FF2903D927853A4600903CE0618D2185F2
:101E800000903EE02046049900F066FE16E000F067
:101E9000B3FE00281CD12068406A616A0870606A3D
:101EA000401C6062208D401E80B22085618D491EDD
:101EB0006185618D002901D000280CD0608D019AC8
:101EC00000280C992046E2D100F0E8FE00281DD041
:101ED000012007B0F0BD019800900022802120462B
:101EE0000C9B00F04FFE0028F2D1608DFF2805D931
:101EF000FF222285009601231B06C3E7608D208503
:101F00000096208D0123C2B25B06BBE7206820212A
:101F1000C16120684268064B1A4042606970AE7029
:101F20002E700020D5E7FFE70220D2E700240080D2
:101F300000E800FEFFB5054604464035687881B0EC
:101F4000202877D12878012874D001202870FFF745
:101F5000BBFE0746012200901923D103204600F062
:101F600011FE002851D1212068701020A870002691
:101F7000666403986062049961856663628D39497D
:101F8000FF2A03D9FF222285CB0206E0628D22853B
:101F900001235B061204120C0FD0226800789062B5
:101FA000606A401C6062608D401E6085208D401E0E
:101FB0002085401CC2B2009101E000220091204621
:101FC000029900F0C9FD16E000F093FE00281CD134
:101FD000606A216800788862606A401C6062608D77
:101FE000401E6085208D401E80B22085618D0029B5
:101FF00001D000280CD0608D0A9900283A4620466E
:10200000E2D100F04BFE00281DD0012005B0F0BD4C
:1020100000970022802120460A9B00F0B3FD002893
:10202000F3D1608DFF2806D9FF22228501231B06EC
:102030000096C4E714E0608D20850096208D012372
:10204000C2B25B06BBE721682020C86121684A68EC
:10205000054B1A404A606870AE702E700020D5E7BC
:102060000220D3E70020008000E800FE10B586B013
:10207000044614216846FEF728F91349206888426F
:1020800020D1124C61690120400401436161616902
:102090000140032005914002009012200190002091
:1020A0000290032003900420049009206946C00692
:1020B000FFF738FDE169012040050143E161E16975
:1020C0000140059106B010BD0054004000100240D0
:1020D00002488168027889188160704718000020E2
:1020E00010B506480168102211430160032000F07A
:1020F00007F800F027F8002010BD00000020024083
:1021000070B504460D4D7D202978C000FEF7DFF83C
:1021100001460B480068FEF7DAF800F01DFB0028C6
:1021200009D1042C07D200222146401E00F02AF8D3
:1021300000206C6070BD012070BD00001800002000
:102140002400002008B508488169012211438161FB
:10215000816911400091C26901040A43C261C069EA
:102160000840009008BD000000100240002805DB78
:10217000C106C90E0120884001490860704700006F
:1021800000E100E010B501F03FF810BDF8B50546DC
:102190000068354CC00352D5E0690026C00007D462
:1021A000E16920040143E161E169014001260091F8
:1021B0002E480168C90510D40168821511430160D9
:1021C000FFF782FD074604E0FFF77EFDC01B642891
:1021D00024D826480068C005F6D5206A03273F02A8
:1021E000384020D06968394081421CD0206A226A78
:1021F000B843012109040A432262226A8A43226207
:102200002062C0070FD0FFF75FFD009008E0FFF7E6
:102210005BFD0099411A1648814201D90320F8BD9F
:10222000206A8007F3D5206A6968B84308432062B2
:10223000002E04D0E169012000078143E161287884
:10224000C00705D0206BA968800880000843206380
:102250002878800605D5206B10218843E96808435B
:1022600020630020F8BD0000001002400070004014
:1022700088130000F8B50F46060059D03A4D28687B
:10228000C007C00FB84209D2286840084000384350
:1022900028602868C007C00FB84249D13068334C65
:1022A00081070CD5400704D560680721090208435F
:1022B00060606068F0218843B168084360603078EE
:1022C000C00726D0706801280ED0216802280ED0E1
:1022D000890700292CDA6168890889000143616057
:1022E000FFF7F2FC00900DE021688903F1E7890116
:1022F000EFE7FFF7E9FC0099411A1D48814201D937
:102300000320F8BD60680C2108407168890088428C
:10231000EFD12868C007C00FB8420BD92868400821
:102320004000384328602868C007C00FB84201D079
:102330000120F8BD3078400706D560680721090202
:102340008843F1680843606000F018F86168094A42
:102350000906090F515CC840074908600320FFF7D0
:10236000CFFE0020F8BD0000002002400010024017
:10237000881300005C3A00082400002010B5104AC1
:1023800051680C200B4603400E48042B17D0082B35
:1023900015D18B020C4C1B0FE45CD26A0A4B12075E
:1023A000120F10339A5CC90305D500231946FDF7B7
:1023B000EDFE214601E02046044900F00DFF10BD6E
:1023C0000010024000127A003C3A000800093D006B
:1023D000FEB5040070D02078DC4DC0074AD0686894
:1023E0000007800F012807D068680007800F0228C7
:1023F00009D16868C00306D5286880033AD56068AB
:102400000028E7D036E06168012914D0012080045B
:10241000002901D0052914D02A68012109048A4322
:102420002A602968814329606068002816D0FFF778
:102430004BFC06460EE02868012109040843286089
:10244000F2E7296801432960F5E7FFF73DFC801BAF
:1024500064286ED828688003F7D50BE0FFF734FCBA
:10246000064604E0FFF730FC801B6428F1D828689A
:102470008003F7D420780126800700283CDA6868BA
:102480000007800F07D068680007800F022809D175
:102490006868C00306D42868800716D5E06801285C
:1024A0000AD112E0E0680028286816D0304328607E
:1024B000FFF70AFC074605E043E1FFF705FCC01BF8
:1024C0000228C6D828688007F7D52868F8218843ED
:1024D0002169C900084328600EE0400840002860D8
:1024E000FFF7F2FB074604E0FFF7EEFBC01B0228F4
:1024F000AFD828688007F7D42078000722D5E06994
:102500000028686A0ED030436862FFF7DDFB07469B
:1025100004E0FFF7D9FBC01B02289AD8686A80073D
:10252000F7D50FE0400840006862FFF7CDFB074693
:1025300005E09DE0FFF7C8FBC01B022889D8686A48
:102540008007F7D4207804274007002860DA0020AD
:102550000190E869C00008D4E969B8060143E9615F
:10256000E969014001200091019079480168C9059D
:1025700011D40168821511430160FFF7A5FB00909B
:1025800005E0FFF7A1FB0099401A642870D8704855
:102590000068C005F5D5A06801280AD0002801D040
:1025A000052810D0286A400840002862286AB843ED
:1025B00001E0286A30432862A068002812D0FFF7A3
:1025C00083FB00900AE0286A38432862F1E7FFF7AE
:1025D0007BFB0099411A5F48814249D8286A8007ED
:1025E000F5D50DE0FFF770FB009006E0FFF76CFB00
:1025F0000099411A574881423AD8286A8007F5D491
:102600000198002804D0E969012000078143E961AD
:102610002078C00635D5606901280CD0401D686B54
:1026200023D038436863686B400840006863FFF755
:102630004BFB064622E0686B38436863686B3043A7
:102640006863FFF741FB064604E0FFF73DFB801B94
:1026500002285BD8686B8007F7D5686BF821884340
:10266000A169C900084368630BE0B8436863F4E7F5
:102670004CE0FFF729FB801B022847D8686B8007D6
:10268000F7D4206A00285ED069680907890F0229FB
:1026900042D0012636060228286805D0B0432860BB
:1026A000FFF712FB044633E0B0432860FFF70CFB52
:1026B000074604E0FFF708FBC01B022826D828685D
:1026C0008001F7D4E86AE16A000900010843E86282
:1026D000616AA06A084369683D2212049143084375
:1026E0006860286830432860FFF7EEFA044604E08B
:1026F000FFF7EAFA001B022808D828688001F7D5FE
:1027000021E0FFF7E1FA001B022801D90320FEBDFA
:1027100028688001F5D416E00128F8D06868E96AD5
:1027200001221204636A02409A420AD10907E26A4E
:10273000090F914205D10F2189040840A16A8842FE
:1027400001D00120FEBD0020FEBD000000100240AF
:102750000070004088130000094910B5401E8842EF
:1027600001D9012010BD074C60610321081F00F052
:102770004BFD0020A06107202061002010BD00005B
:10278000FFFFFF0000E000E0F0B502462032137FBB
:10279000012B1BD0012616770223537705686B683F
:1027A000AC687027BB430F681F436F600068084B1D
:1027B000984202D0074B984204D1802349689C4339
:1027C00021438160567700201077F0BD0220F0BDD4
:1027D000002C01400004004070B586B0044614216E
:1027E0006846FDF772FD16492068884225D11548D4
:1027F000426949130A43426142690A4005924269AB
:1028000049000A4342614069002408400590802045
:10281000009002250126092002946946049601953C
:102820000394C006FFF77EF90095029469460648B6
:10283000049601950394FFF775F906B070BD00008A
:10284000000400400010024000040048F8B50646AD
:1028500004462036307F00270D4601280ED0012087
:102860003077002A0CD0042A1BD0082A2FD00C2A3B
:102870003ED00127002030773846F8BD0220F8BD51
:10288000206800F0C7FB206881690822114381613C
:102890002068826904218A438261206881692A69EB
:1028A00012E0206800F0F2FB206882690121C90271
:1028B0000A43826120688169012292029143816109
:1028C000206881692A69120211438161D2E7206878
:1028D00000F016FC2068C16908221143C16120681C
:1028E000C26904218A43C2612068C1692A6912E071
:1028F000206800F041FC2068C1690122D202114326
:10290000C1612068C269012189028A43C2612068CD
:10291000C1692A6912021143C161ABE770B50400B5
:1029200005D025462035687F002802D006E001202A
:1029300070BD00202877204600F014F80220687748
:10294000211D206800F014FB01204034A071A877FD
:10295000E87720706070A070E07020716071687717
:10296000002070BD08B500680549884207D10548B8
:10297000C26902210A43C261C0690840009008BDD3
:10298000000400400010024010B50446022220302E
:1029900000290AD004290DD02046403008290ED045
:1029A0004378012B10D0012010BD837F012BFAD179
:1029B00082770AE0C37F012BF5D1C27705E0037867
:1029C000012BF0D1027000E042700122206800F07B
:1029D00013FB10492068884205D00F4A904202D06C
:1029E0000E4A904204D1426C0123DB031A43426435
:1029F00020680122884202D00949884204D18168B6
:102A00004907490F062902D00168114301600020DF
:102A100010BD0000002C014000440140004801406E
:102A200000040040FEE701688A69D243920701D49E
:102A300000228A6200688169C943C90703D081699D
:102A40000122114381617047F7B50446006882B0E6
:102A5000816900262746C90640373546009200297D
:102A600045DA1021C16132E00398401C2FD0FFF7F6
:102A70002BF90099411A0398814201D8002826D1E8
:102A800020684168012292031140BA788369DB43D0
:102A90001B0417D401239B03994213D0202A11D081
:102AA000416819434160FFF70FF900900AE0FFF712
:102AB0000BF901460098081A192803D9202005436C
:102AC000012604E020688069C0438006EFD42068B6
:102AD0008069C043800602D5002EC5D004E0002ED8
:102AE00002D121682020C861042005430126216805
:102AF0008869C20504D5012215431202CA61012664
:102B0000410508D508210D43CA012168CA61012683
:102B1000800502D40AE0800506D50220054321681D
:102B20000002C861012601E0002E0FD02046FFF709
:102B30007AFF20684168074A11404160606C284371
:102B40006064202078700020B8703870304605B07E
:102B5000F0BD000000E800FE890510B5890D1204E3
:102B60001143029C194302682143490050684908F7
:102B7000630D034C234398430843506010BD00008D
:102B8000FF63FF03F8B51D4617460E46044626E0D0
:102B900029462046069AFFF757FF002801D001205A
:102BA000F8BD681C1BD0FFF78FF80699401AA842A1
:102BB00001D8002D13D120688169304688430CD09C
:102BC0000020B8420BD1616C202001436164403485
:102BD00060700020A0702070E1E70120F1E720681C
:102BE00081693046884304D00020B842D0D000200C
:102BF000F8BD0120F9E70000F7B5002520270646BB
:102C0000044640363EE02046029A0199FFF71CFF39
:102C1000002800D0012520688169C943890619D49C
:102C2000002D17D181698169C943C90610D41021CB
:102C3000C161042060642068C76120684168164A49
:102C40001140416077700020B0703070012501E0C4
:102C500000206064FFF738F801460298091A0198CD
:102C6000814201D800280DD1002D0BD12068806948
:102C7000C043400706D5606C38436064777000201D
:102C80003070012520688069C043400701D5002DC0
:102C9000B9D02846FEBD000000E800FE70B516461B
:102CA0000D4604461EE0324629462046FFF7CCFE7C
:102CB000002801D0012070BDFFF706F8801BA84254
:102CC00001D8002D0ED120688069C043800609D547
:102CD000616C202001436164403460700020A0706A
:102CE0002070E7E720688069C0438006DBD40020BD
:102CF00070BD70B516460D46044620E032462946A2
:102D00002046FFF7A1FE002801D0012070BD681CFD
:102D100015D0FEF7D9FF801BA84201D8002D0ED197
:102D200020688069C043800709D5616C2020014379
:102D30006164403460700020A0702070E5E7206876
:102D40008069C0438007D9D4002070BD08B50C4805
:102D50004269012189050A43426142690A400092A1
:102D6000426949110A43426142690A40009242693C
:102D700049000A43426140690840009008BD0000D4
:102D80000010024010B5134811490160124941601A
:102D9000002181600161416181610122C161C260E4
:102DA0000162FEF7E1FF002801D0FEF70BFC0021D5
:102DB0000848FEF78FFF002801D0FEF703FC002132
:102DC0000448FEF7ACFF002801D0FEF7FBFB10BD66
:102DD00000540040AC0000205D3E302010B58AB0A9
:102DE000002407941C2168460894FDF76EFA1A49DE
:102DF0001A4812C0046084601949046141600838AF
:102E0000FFF78CFD002801D0FEF7DCFB079407A933
:102E100012480894FFF7B8FC002801D0FEF7D2FB57
:102E200060200090019402940422694604940B48A7
:102E3000FFF70CFD002801D0FEF7C4FB0C22694609
:102E40000648FFF703FD002801D0FEF7BBFB03484F
:102E5000FFF7C2FC0AB010BD0004004000010020D2
:102E6000FFFF0000FEE7000070B5FEF70DF8174DFC
:102E7000294600F023FD1649FDF712FF04460146DE
:102E8000284600F073FD134D294600F017FD21463A
:102E9000FDF706FF2946FDF703FFFDF7D7FE00F01B
:102EA00083FA00220C4BFDF7ADFC072252070B4BB7
:102EB000FDF778FC02460B4600200949FDF7A2FC0D
:102EC000FDF7B6FA074900F051FD70BD33335340AA
:102ED00000F07F450050C34700DCAE40E1796B3F16
:102EE0000000F03F339388437047704710B5FFF7F9
:102EF000EFF810BD70B594B030216846FDF7E5F9E4
:102F000000240F94112000900120109401900E9441
:102F100005901394000409900D94102500010C9461
:102F20001294022606950A90119408960B9468460E
:102F3000FFF74EFA002801D072B6FEE707200C908A
:102F40000E9401210D960F940CA8FFF793F9002819
:102F500001D072B6FEE720201090139510A8FFF75D
:102F600015F9002801D072B6FEE714B070BD7047A5
:102F700070B502681B4B1C4E984201D0B04203D181
:102F80007024A2434C682243184C194D984208D033
:102F9000B04206D0174EB04203D0A04201D0A842A2
:102FA00004D103263602B243CE6832438026B243B0
:102FB0004E69324302608A68C2620A68826298423D
:102FC00003D0A04201D0A84201D1096901630121C7
:102FD00041610169C90703D00169490849000161DC
:102FE00070BD0000002C014000040040004401407E
:102FF000004801400020004010B5CB06DB0E012147
:10300000046A99408C430462016A9A401143016248
:1030100010BD0000F0B5056A026A52085200026253
:10302000436882697024A24392080C68920014439A
:10303000022295438A68134E2A43114DA84204D0B8
:10304000B04202D0104FB84206D10827BA43CF6829
:103050001743042297433A46A84204D0B04202D014
:10306000094DA84206D103252D02AB434D691D43EE
:103070008B692B4343608461496841630262F0BD00
:10308000002C0140004401400048014070B5046A32
:10309000026A10239A4302624368826973252D02F3
:1030A000AA430D682D021543202294438A68120119
:1030B0002243104CA04208D11446CA688026B4436B
:1030C000120122434024A24305E00B4CA04202D04F
:1030D0000A4CA04208D10324A402A3434C69A400D3
:1030E0001C438B699B00234343608561496881636E
:1030F000026270BD002C01400044014000480140C4
:1031000070B5056A026AFF2301339A43026242687E
:10311000C3697024A3439B080C689B001C430123D4
:103120005B029D438B681B022B43104DA84208D1C4
:103130001D46CB68C614B5431B022B430515AB4394
:1031400005E00B4DA84202D00A4DA84208D1032544
:103150002D03AA434D692D0115438A6912012A43A3
:103160004260C4614968C163036270BD002C0140C4
:10317000004401400048014030B5046A026A01235E
:103180001B039A4302624368C26973252D02AA4356
:103190000D682D0215430122520394438A681203DD
:1031A00022430A4CA04205D0094CA04202D0094C4F
:1031B000A04205D10124A403A3434C69A4012343E5
:1031C0004360C56149680164026230BD002C014062
:1031D0000044014000480140F8B5040C8BB226467B
:1031E00082B25E430D0C1046370C584336048019EA
:1031F0000021794116466E43370C36048019794117
:1032000026466E438919F8BD8307FF22DB0E9A40DC
:103210008907090E9940002808DB830809489B00AC
:103220001B18186890430843186070470007000F88
:103230000838830804489B001B18D869904308434A
:10324000D861704700E400E000ED00E0F8B5044606
:103250004F1EC8000838211815461E4608684968E0
:103260003A4606239A4310D02A463346FDF76AFEB3
:103270003A46D200083AA3181A687F1E5B68FDF729
:1032800091FA06223B469343EED1022F23D0042F1E
:1032900011D0062F2FD12A463346FDF753FEE36A9D
:1032A000A26AFDF77FFA2A463346FDF74BFE636AB2
:1032B000226AFDF777FA2A463346FDF743FEE369B3
:1032C000A269FDF76FFA2A463346FDF73BFE6369B4
:1032D0002269FDF767FA2A463346FDF733FEE368B5
:1032E000A268FDF75FFA2A463346FDF72BFE6368B6
:1032F0002268FDF757FAF8BD002210B513461046B4
:103300000149FDF77FFA10BD0000F03F10B5012222
:10331000FDF73CFF10BD002210B5134610461146C4
:10332000FDF770FA10BDFEB5002504460095019525
:1033300002952160A560012601212661C907E5608B
:103340006160A676E576FF21C23125622420E16125
:1033500006550420606117462046FEF7C1F9002893
:1033600001D0FEF72FF90020009002200290019674
:1033700069462046FEF728F9002800D001250220E2
:103380000190694600962046FEF71EF9002800D0FD
:103390006D1C7A78B91C2046FEF7B4FA002800D0DC
:1033A0006D1C2846FEBD0000F0B5C54A00248FB054
:1033B00091420ADA4B005B08934206D801254A0085
:1033C0006D05EA4205D1002803D0FFF79FFF0FB03B
:1033D000F0BD01252D05A94219DA034308D00029C3
:1033E00010DA0120FDF77BFDFFF795FF0FB0F0BD70
:1033F0000220FDF774FDFFF77FFF0122D207514045
:103400000FB0F0BD3524E4433622FDF7BFFE0A15A8
:10341000AC4B1219D4180A03120BAB49AB4B56181C
:103420002E403146594011430192321512190B9228
:103430000022FDF7C4F9019A0446921C1003A44E21
:10344000000B0D467E44032860D220467368326824
:1034500000F0BCF91CD10B98002815D0FDF766FDD3
:1034600004460E469B4A9C4BFDF76CFD0D460746F5
:103470009A4A9B4B20463146FDF764FD3A462B465F
:10348000FDF790F90FB0F0BD716830680FB0F0BD76
:10349000944A954B20462946FDF754FD0022934B54
:1034A000FDF798F906460F4622462B461046194668
:1034B000FDF748FD32463B46FDF744FD06460B98B6
:1034C0000F4600281DD0FDF731FD824A824B059141
:1034D0000490FDF737FD32463B46FDF77BF9224667
:1034E0002B46FDF76CF904460D467C4A7C4B05994A
:1034F0000498FDF727FD22462B46FDF760F90FB033
:10350000F0BD0B46324620462946C4E00123002286
:103510009B072046FDF746F902460B462046294602
:10352000FDF770F906460F460B98FDF7FFFC324693
:103530003B460591049010461946FDF703FD09919D
:103540000C906B490198099B421800920C9A1946FD
:103550001046FDF7F7FC024607910A90654901986D
:103560000B1A6548019303217844079BFFF76EFE11
:10357000079B0A9AFDF7E6FC0E905F480D91042127
:103580007844079B0A9AFFF761FE099B0C9AFDF7A6
:10359000D9FC019B009A1A4300920D9B0E9AFDF7ED
:1035A00001F9009A01910C90002A4DDD0022D243CE
:1035B00020462946FDF7EAFD22462B46FDF7C2FCD0
:1035C00000910A900B9800282BD0424A424B059953
:1035D0000498FDF7B7FC07910E90019B0C9A009997
:1035E0000A98FDF7DFF832463B46FDF7ABFC079B38
:1035F0000E9AFDF7D7F8009B0A9AFDF7EBF82246E2
:103600002B46FDF7DCF804460D46344A344B059949
:103610000498FDF797FC22462B46FDF7D0F80FB033
:10362000F0BD019B0C9A0A98FDF7BCF832463B4668
:10363000FDF788FC009B0A9AFDF7CCF822462B4642
:10364000FDF7C8F80FB0F0BD0B98002827D0214A2D
:10365000214B05990498FDF775FC079100902046D1
:103660002946019B0C9AFDF7AAF832463B46FDF726
:1036700069FC079B009AFDF7A2F822462B46FDF74E
:103680009EF804460D46154A154B05990498FDF71A
:1036900059FC22462B46FDF792F80FB0F0BD0B46C1
:1036A000204629460C9AFDF78AF832463B46FDF73C
:1036B00049FC22462B46FDF78DF80FB0F0BD000007
:1036C0000000F07F01FCFFFF645F09000000F03F95
:1036D00020070000763C7935EF39EA3D0000E0FE36
:1036E000422EE63F555555555555D53F0000E03F14
:1036F00086EBF9FF51B80600C4050000FEF7F0FCA8
:10370000FFF7F8FBFFF722FBFFF73CFBFFF766FB39
:10371000154C002020700220607022461349144886
:10372000FFF701FE002801D072B6FEE70421114820
:10373000FFF72AF90C210F48FFF726F96088FFF7F9
:1037400093FBA088FFF790FB0B490C48FDF7AEFEFA
:1037500050220821074800F013F8502202210548A2
:1037600000F00EF8EAE7000000000020002401400D
:1037700028000020000100200C000020080000208C
:1037800070B504460D461046FDF77EFB0E49FDF769
:1037900087FA0646E068401CFDF776FB314600F0EC
:1037A0008DF8FDF72DFB290701D52168086469070D
:1037B00001D52168C863A90701D521688863E90795
:1037C00001D02168486370BD0000C84270B5012572
:1037D0000C002D051C4310D4EC4206D4AC420AD494
:1037E000994200D070BD904270BDE94217D4EB42BF
:1037F00015D4994270BD894270BDEC4206D5AC42E9
:10380000F9D58B4200D070BD824270BD6D004C0076
:10381000EC4204D25C00EC4201D28B4270BD034CFE
:1038200030B4FDF7E7FC30BC70BD00BF19001204D6
:1038300070B501250400ED074C4020D4441A01D294
:10384000001B0919C60D4B00F2B2FF2A29D01B0E2E
:103850002CD000020C02D31A2C43DC40284305195B
:1038600010D2280A02D3401C6D0611D0761EF60530
:103870008019FF2A00DA70BDC00DC00570BD694017
:1038800000F07AF801200543C541521C761CE8E798
:1038900064089C40C90161408900E7D10124A0432C
:1038A000E4E71B0E440200D0034870BD002AFCD19F
:1038B000C00FC00770BD00BF0000C07F70B54200E0
:1038C00064414B005C41120E39D01B0E38D0FF2AE8
:1038D0003CD0FF2B3AD040024902400A490A060078
:1038E00045184E43000A090AD2184843ED017F3AB1
:1038F0000104731A4019190C4318990F04D00121BF
:103900005B0849075B1A521CD80904D3401CF50315
:1039100001D19D0607D0FF2A08D2D50506D0E407BD
:103920002043401970BD0125A843F4E7002A01DCBB
:10393000E00770BD2402FF202043C00570BD1B0EB0
:10394000FF2A03D0FF2B01D0E00770BDFF26450002
:103950003606B54206D84D00B54203D8D218FF2A24
:1039600000D0E7E7004870BD0000C07F70B50125BA
:103970000400ED074C4022D4441A02D26C40001BD4
:103980000919C60D4B00F2B2FF2A4BD01B0E50D0C6
:1039900000020C02D31A2C43DC40A843051B05D5BA
:1039A000AD0019D36D08761E521E37D0F605280AD1
:1039B00001D2801970BD70416D0603D070BD6940A1
:1039C000FFF73CFF9C4009026140490001D0401EC6
:1039D00070BD0124A04370BD6D081DD001202B0CCB
:1039E00001D12D0410302B0E01D12D0208302B0FE8
:1039F00001D12D01001DAB0F01D1AD00801CEB0FDB
:103A000001D16D00401C6D00361A121A680AF505C6
:103A10004019012A02DB70BD002070BDC036300A9B
:103A2000C00770BD1B0E440201D1FF2B00D102481C
:103A300070BD002AF0D070BD0000C07F02030405F5
:103A4000060708090A0B0C0D0E0F101001020304E3
:103A500005060708090A0B0C0D0E0F1000000000E8
:103A600000000000010203040607080980807F7E31
:103A70007D7C7B7A797877767675747372717170E4
:103A80006F6E6E6D6C6C6B6A6A6968686766666596
:103A90006464636362616160605F5F5E5E5D5D5C24
:103AA0005C5B5B5A5A595958585757565655555595
:103AB0005454535352525251515050504F4F4F4EF5
:103AC0004E4D4D4D4C4C4C4B4B4B4A4A4A49494943
:103AD0004848484747474746464645454544444485
:103AE00044434343434242424241414181828384B1
:103AF00085868788898B8C8D8E8F919293959697EA
:103B0000999A9C9D9FA0A2A3A5A7A8AAACAEB0B26B
:103B1000B3B5B7B9BCBEC0C2C5C7C9CCCED1D4D766
:103B2000D9DCDFE2E6E9ECF0F3F7FAFE0000000092
:103B300004FA97999999D93FAF788E1DC571CC3FFA
:103B40009FC678D0099AC33F935555555555E53FC3
:103B5000599322942449D23FDE03CB966446C73F53
:103B600044523EDF12F1C23F00000000000000009E
:103B7000903B00080000002028000000F40000082E
:103B8000B83B000828000020800700001001000852
:103B90000000000000000000000000000000000025
:103BA0000000000000000000010000000400000010
:083BB0000000000000127A0081
:04000005080000B13E
:00000001FF
