:020000040800F2
:1000000078090020550100087D2700085B230008BF
:1000100000000000000000000000000000000000E0
:10002000000000000000000000000000EF270008B2
:100030000000000000000000ED270008F127000884
:100040006701000800000000670100086701000860
:1000500067010008670100086701000867010008E0
:1000600000000000F5090008050A00086701000803
:100070006701000867010008670100080000000030
:100080006701000800000000000000006701000890
:100090000000000067010008670100086701000810
:1000A000000000006701000800000000212D00088A
:1000B00000F002F800F03EF80CA030C80838241810
:1000C0002D18A246671EAB4654465D46AC4201D190
:1000D00000F030F87E460F3E0FCCB6460126334284
:1000E00000D0FB1AA246AB46334318476C320000DF
:1000F0008C320000103A02D378C878C1FAD852077F
:1001000001D330C830C101D504680C6070470000CD
:100110000023002400250026103A01D378C1FBD823
:10012000520700D330C100D50B6070471FB51FBD0B
:1001300010B510BD00F096FA1146FFF7F7FF02F078
:100140008FFE00F0AEFA03B4FFF7F2FF03BC00F03D
:10015000B5FA00000748804707480047FEE7FEE77A
:10016000FEE7FEE7FEE7FEE704480549054A064BC1
:100170007047000073280008B100000878030020D1
:10018000780900207805002078050020FEB5054696
:1001900010460C46184373D0AE468C460020AD1A6C
:1001A00001469C4167D36646002701243D46B61AA6
:1001B0009D4102D313463A462124654676462F04D4
:1001C000360C3E432D0CB61A9D4104D3150C1B046E
:1001D0002B4312041034654676462F06360A3E43FA
:1001E0002D0AB61A9D4104D3150E1B022B43120291
:1001F0000834654676462F0736093E432D09B61A60
:100200009D4104D3150F1B012B431201241D65468C
:100210007646AF07B6083E43AD08B61A9D4104D3F3
:10022000950F9B002B439200A41C65467646EF0772
:1002300076083E436D08B61A9D411AD392185B4169
:10024000641C16E00018764665464941B71A9D4180
:100250000191009009D36046B11A98418E468446B8
:10026000009801990025401C6941DD0752082A4386
:100270005B08641EE6D57246634603B0F0BDFFE737
:1002800000200146C046C0462A462346F5E701E065
:1002900004C0091F0429FBD28B0701D50280801CF2
:1002A000C90700D00270704700290BD0C30702D0E5
:1002B0000270401C491E022904D3830702D5028024
:1002C000801C891EE3E70022EEE70022DFE7002220
:1002D00003098B422CD3030A8B4211D300239C4683
:1002E0004EE003460B433CD4002243088B4231D3FB
:1002F00003098B421CD3030A8B4201D394463FE08F
:10030000C3098B4201D3CB01C01A524183098B42EE
:1003100001D38B01C01A524143098B4201D34B01D7
:10032000C01A524103098B4201D30B01C01A52413A
:10033000C3088B4201D3CB00C01A524183088B42C1
:1003400001D38B00C01A524143088B4201D34B00AA
:10035000C01A5241411A00D201465241104670471C
:100360005DE0CA0F00D04942031000D34042534021
:1003700000229C4603098B422DD3030A8B4212D3E1
:10038000FC22890112BA030A8B420CD38901921113
:100390008B4208D3890192118B4204D389013AD050
:1003A000921100E08909C3098B4201D3CB01C01A25
:1003B000524183098B4201D38B01C01A5241430938
:1003C0008B4201D34B01C01A524103098B4201D326
:1003D0000B01C01A5241C3088B4201D3CB00C01A93
:1003E000524183088B4201D38B00C01A5241D9D2AB
:1003F00043088B4201D34B00C01A5241411A00D22C
:100400000146634652415B10104601D34042002B27
:1004100000D54942704763465B1000D3404201B5A6
:100420000020C046C04602BD7047704770470000BC
:10043000F0B5FF252D04C609C209FF2704462E404A
:100440000137CB093E4348402A402B400746002A4B
:100450006BD0002B69D0AA4267D0AB4265D0002890
:1004600000DA32460125ED0529432C43090220021A
:10047000090AD21A4B0C7F24E31A434C000A7C442D
:10048000E35C7D242404121914145B00A218884232
:1004900001D3521C00E0400049420C465C43241149
:1004A0005C43DB016415E318040A5C43C502200DBC
:1004B0000C4644436419250A5D432303EC0C0D46A6
:1004C000654300030019EB184C42A34201D35B18AB
:1004D000401CD4052018002B07D05B00C91804D39A
:1004E000401C002901D1400840003F2189048A4274
:1004F00009D3002A08DC1106090F04D0032149079B
:100500004018C00FC007F0BD012241001206891833
:100510007F2252069142F6D205214907C84201D5F1
:100520009010F0BDFF20C005F0BD002F00DA32466C
:100530001648AA4207D2AB4205D21902090E17D0BB
:10054000F80FC007F0BDFF2563002D06AB42F9D8B8
:100550004900A942F6D8AB4201D1A942F2D0A94242
:1005600001D1002101E061004908D0050843F0BD38
:100570001102090EFBD0FF200243D005F0BD0A4650
:100580000146104654E70000962E00000000C07F90
:100590000102C21504D00123DB071943002A0ADB3C
:1005A0009E239A1A02D40846D0407047FF22410089
:1005B0001206914201D900207047C017C04370470E
:1005C0001F22030C02D10F2200041CD0030E01D104
:1005D0000002083A030F01D10001121F830F01D15D
:1005E0008000921E002801DB4000521ED2055118E7
:1005F000021251181922904004D3491C002801D13D
:100600004908490008467047C10FC90700D0404259
:10061000012292071143D3E701218907D0E70000A7
:1006200010B5FF22C30D134009D05A4007D09142A4
:1006300005DA5C42A14202DDC905081810BDC40FED
:10064000E407002B06D0002A06D0002902DBFF2099
:10065000C0050443204610BD4102FCD0004810BD37
:100660000000C07F754600F025F8AE4605006946DB
:100670005346C008C000854618B020B5FFF774FD8A
:1006800060BC00274908B6460026C0C5C0C5C0C525
:10069000C0C5C0C5C0C5C0C5C0C5403D49008D4628
:1006A000704710B50446C046C0462046FFF74BFDD4
:1006B00010BD0000004870471803002001491820B1
:1006C000ABBEFEE726000200704710B50146406A47
:1006D000826B50231A420AD1816B012252021143CC
:1006E00081630168CA681205920F05D020E0006B93
:1006F000026B0846904710BD827E002A18D10A6816
:10070000120715D58A6853070122002B09DB4B68B5
:100710000C24A3434B60816B130299431143816303
:1007200006E0816B202319438163C16B1143C163D0
:1007300000F020FA10BD10B5406A816B40221143D1
:100740008163C16B04221143C16300F015FA10BD2F
:1007500010B5406A00F00FFA10BD0000F8B504466D
:1007600000200090206881688907890F012905D140
:100770000168C90731D1C16809042ED48168184ABB
:1007800010261140012500291AD181682943816072
:10079000154814490068FFF79AFD00E0401E0090DC
:1007A0000028FBD100F08CFD074611E000F088FD29
:1007B000C01B02280CD920680068C043C00707D0BE
:1007C000A06B3043A063E06B2843E0630120F8BDD9
:1007D00020680068C043C007E8D10020F8BD0000D1
:1007E0001700008040420F00280000203EB578200E
:1007F00000F018FC7120694608716424012301AAE5
:1008000070211848009400F061FE002801D00220F9
:100810003EBD012302AA70211248009400F0CEFDD3
:10082000002801D003203EBD6846007AC006800F34
:10083000032814D0BE2168460171082141710021AE
:100840008171032301AA70210648009400F03EFE46
:10085000002801D004203EBD0A2000F0E3FB002068
:100860003EBD0000B0000020F3B589B0AC21684661
:10087000017333214173002181736424032303AA8C
:1008800070213B48009400F021FE002808D0384831
:1008900000F01CFD364800F033FD01200BB0F0BD28
:1008A000502000F0BFFB0723324A702130480094EB
:1008B00000F084FD002807D02D4800F007FD2C48EB
:1008C00000F01EFD0220E9E72A490878020601D55A
:1008D0000320E3E7000701D40420DFE70625FF201B
:1008E000002201AE3124B35C58400023070602D534
:1008F0004000604000E040005B1CDBB2C0B2082B4F
:10090000F4D3521CD2B2AA42EDD36A46927A824202
:1009100001D00520C2E7487802038878000102432D
:10092000C87803090007040B08791A43000204433E
:10093000487904431046FFF76FFE1325ED4329461F
:10094000FFF76EFE0C4902F0CFFB0A9908602046C3
:10095000FFF762FE2946FFF763FE084902F0C4FB79
:10096000074902F019FC09990860002096E7000089
:10097000B00000200E0000200000C84200004843E4
:1009800000004842F3B50A467F20174D174CC005BA
:10099000174981B0824201DA024602E08A4200DD54
:1009A0000A461046FFF744FD02F03CFA064621468F
:1009B000019802F053FB07462946019802F094FB88
:1009C0003946FFF735FD314602F048FB0646014641
:1009D000284602F0E1FB05463146204602F084FB42
:1009E0002946FFF725FDFEBDF6288A4133B36D4346
:1009F0000000C84210B5024800F066FA10BD0000C1
:100A00006C00002010B5024800F05EFA10BD000036
:100A1000D402002010B5044600680549401814218E
:100A2000FFF755FC800020640248E06310BD000021
:100A3000F8FFFDBF0000024030B5056C0124AC405A
:100A4000C56B6C60046863604368102B036803D057
:100A500099600068C26030BD9A600068C16030BDB6
:100A600072B6FEE7F8B50025044620340095227DD5
:100A7000012A39D00122227503689E68760767D45F
:100A8000384F4E68BE424DD09E6A0F78BA4016432A
:100A90009E620123C26A1B079A421FD0012A1DD001
:100AA000022A1BD0032A19D0042A17D0052A15D0F0
:100AB000062A13D0072A11D002688B685669760778
:100AC000760FB3420AD05369DB08DB00536100683C
:100AD00042690B7A5B075B0F1A4342610A68102A6E
:100AE00004D0112A02D038E00220F8BD1E488368E5
:100AF000102A07D00122920513438360086810284A
:100B000003D02AE00122D205F6E719481749006808
:100B1000FFF7DDFB0A21484300E0401E009000285B
:100B2000FBD11AE0986A0E78B24090439862096847
:100B3000102901D0112910D10B488268102904D046
:100B4000012189058A43826007E00121C905F9E78F
:100B5000816B2022114381630125002020752846E6
:100B6000F8BD0000011000000027014040420F00C6
:100B7000280000207047704770470000F8B5002635
:100B80000446002805D0A06B25462035002802D059
:100B900007E00120F8BD0020E0632875204600F042
:100BA000A9F8A06B1022C006002870DB20688168BD
:100BB00049076CD4A16B1301994302231943A16324
:100BC00081688907890F012905D10168C9070FD1FB
:100BD000C16809040CD4C16818239943A368194358
:100BE000C16020680169636889008908194301614F
:100BF0002068C1683D4B1940C160207E617E800342
:100C0000C9030843A17E4B031843A36A012B02D0FA
:100C100001231B0300E000231843E3681843236902
:100C2000022B09D0002318432B79E57E5B00184383
:100C30000123012D02D00AE00423F4E7002927D084
:100C4000A16B20252943A163E16B1943E163E169AD
:100C50000D46FF3DC23D02D0256A29430843216865
:100C6000CD680543CD600125E16A2D07A94213D067
:100C7000012911D002290FD003290DD004290BD04E
:100C8000052909D0062907D0072905D010E028E05A
:100C9000012109040843DAE721684D69ED08ED00F8
:100CA0004D6121684D69A78D7F077F0F3D434D61E1
:100CB0002168C9680E4D2940814207D10020E063B8
:100CC000A06B80088000401CA06308E0A06B02219C
:100CD00088431043A063E06B1843E063012630466D
:100CE000F8BDA06B1043A063F8E700001902FEFFF7
:100CF000E7FF3F8370B586B0054614216846FFF7CD
:100D0000E4FA2349286888423FD122498A6940157C
:100D100002438A618A69024005924A6900020243DD
:100D20004A614A69024005924869012210434861BC
:100D300048690621104005900022092000F00AFDB4
:100D4000092000F0FBFC0320009001900026092000
:100D500069460296C00600F0E1F90F480F4C41C405
:100D60008020266060604000A0608000E06020205D
:100D70002061000260610948083C00F0F3F8002897
:100D800001D0FFF76DFE2C63656206B070BD0000F8
:100D90000024014000100240080002406C000020C6
:100DA000F7B5044600680025806840073DD4264614
:100DB0002036307D01280AD001273775607E012852
:100DC00007D02046FFF7CAFC050002D02EE0022023
:100DD000FEBDA06B16490840FF2101310843A06306
:100DE0000020E0633075216B12488862216B124845
:100DF000C862216B1148086321681C2008602068C4
:100E000041681022114341602068C1683943C160C4
:100E10002168206B4031029B019A00F0CDF82068D8
:100E2000816804221143816000E002252846FEBD4E
:100E3000FEF1FFFFCB060008510700083707000846
:100E400030B5014620314B780022022B04D0042318
:100E500083630A70012030BD03681C680E25AC4313
:100E60001C6003681C68640864001C600123056C36
:100E70001C46C06BAC4044604B700A70002030BD13
:100E800070B50024014620314A78022A03D004219B
:100E90008163012416E0026813680E25AB431360DA
:100EA000026813685B085B0013600122056C13463F
:100EB000AB40C56B6B604A7000220A70416B002921
:100EC00000D08847204670BDF0B4C16B0D68016842
:100ED0000C680422066C1346B3402B420DD0630706
:100EE0000BD50B689B0602D40B6893430B60016C17
:100EF0008A40C16B4A60C16A19E00227B7400246C6
:100F00002F4001232032002F15D0A70713D50C68DE
:100F1000A40604D40C680A25AC430C605370036C1F
:100F200002219940C36B596000211170816A002928
:100F300016D0F0BC08470827B7402F4210D024072E
:100F40000ED50C680E25AC430C60046C1946A1400C
:100F5000C46B61608363537000211170016BE6E71D
:100F6000F0BC704770B5040021D00221204620302B
:100F700005464170226811680E48A3680140606808
:100F800026691843E3683343184363691843A36928
:100F90001843E3691843084310602046FFF73AFD01
:100FA0000021A163012068702970084670BD0120EE
:100FB00070BD00000FC0FFFFF8B504468C4620301E
:100FC00001780025012909D0012606704178002703
:100FD000012905D0077002252846F8BD0220F8BD7A
:100FE00002214170A7632068016849084900016037
:100FF00061462046FFF720FDE06A0028206801686E
:1010000002D00E22114306E00A221143016020683B
:101010000168042291430160206801683143016046
:10102000DAE7000070B5044600F04AF90546601C96
:1010300002D004480078241800F042F9401BA04276
:10104000FAD370BD1C000020F0B5002258E0012347
:1010500093401C460C4052D096082B4DB600751993
:10106000AF68AC4695072E0F0F25B540AE463D4004
:101070000927FF06B84201D100270FE0234FB842ED
:1010800001D101270AE0224FB84201D1022705E031
:10109000204FB84201D1032700E00527B740AF42F7
:1010A00012D11D4D2E68A6432E606E68A6436E6059
:1010B000EE68A643EE60AE68A643AE606546AD68D6
:1010C0007446A5436446A560056856000324B440F1
:1010D000A5430560D508AD002D182E6AAC4655070E
:1010E000EF0E0F25BD40AE4365462E62C568A54391
:1010F000C56045689D4345608368A3438360521C77
:101100000B46D340A3D1F0BD0000014000040048CD
:1011100000080048000C004800040140F8B5002316
:1011200003240125BAE02E469E40B44632407CD0CE
:101130000E79B607B60F012E01D0022E17D18668A0
:101140002746B6465E00B74000967646BE43B64692
:10115000CF68009EB740764637438760466867464B
:10116000BE430F79FF06FF0F9F40374347600E795C
:10117000F643B6070ED0C6682746B4465E00B646AC
:10118000B7406646BE43B4468F687646B74066466B
:101190003743C7600E79B607B60F022E14D1DE08AA
:1011A000B60036180096366A5F07B446FE0E0F2763
:1011B000B646B7406646BE43B4460F697646B7406A
:1011C00066463743009E376206682746B4465E008F
:1011D000B646B7406646BE430F79B446BF07BF0F59
:1011E0007646B7406646374307604E68B603B60F8B
:1011F00053D02D4FBE692E43BE61BE699F08F607CE
:10120000F60F2A4EBF00BE190096B6680F27B446E7
:101210009E07360FB646B7406646BE430927FF060F
:10122000B446B84202D1002710E036E0204FB84261
:1012300001D101270AE01F4FB84201D1022705E082
:101240001D4FB84201D1032700E005277646B7407D
:1012500066463743009EB760184EB6684F6896439F
:10126000FF0200D51643154FBE60FE684F689643D7
:10127000BF0200D51643114FFE607E684F6896434B
:10128000BF0300D516430D4F7E603E684F689643FE
:10129000FF0300D51643094A16605B1C0A68164610
:1012A000DE4000D03FE7F8BD0010024000000140E2
:1012B0000004004800080048000C004800040140F9
:1012C00001488068704700001C00002070B50400D1
:1012D00014D0242120464030054641702068016822
:1012E000490849000160204600F08CF90021616442
:1012F00069702163A9702970084670BD012070BD16
:1013000070B5040006D025464035687800260028D0
:1013100002D005E0012070BD2E70204600F08EF94D
:1013200024206870206801684908490001600F2185
:101330006068090688432168086121688A6801207D
:10134000C00382438A60E1680129A1682FD021226D
:1013500092021143226891600121E268C902022AC7
:101360002268536825D08B43536021684A68124B2A
:101370001A434A602168CA688243CA606169206969
:101380000843A169090208432168C860216AE0692D
:101390000843216808602068016801221143016048
:1013A0006664202068702663AE70002070BD014323
:1013B000D0E70B43D8E7000000800002FFB50546E8
:1013C00004464035687883B0202879D128780128F0
:1013D00076D001272F70FFF773FF01900122009054
:1013E0001923D103204601F069F800283CD12220BE
:1013F00068701020A87000266664059860620698E0
:1014000060856663618D2F48FF2903D927853A4699
:1014100000903CE0618D218500903EE020460499DB
:1014200001F036F816E001F083F800281CD120689E
:10143000406A616A0870606A401C6062208D401ECC
:1014400080B22085618D491E6185618D002901D0A2
:1014500000280CD0608D019A00280C992046E2D11A
:1014600001F0B8F800281DD0012007B0F0BD0198A8
:1014700000900022802120460C9B01F01FF80028DC
:10148000F2D1608DFF2805D9FF2222850096012325
:101490001B06C3E7608D20850096208D0123C2B214
:1014A0005B06BBE720682021C16120684268064BCB
:1014B0001A4042606970AE702E700020D5E7FFE7D9
:1014C0000220D2E70024008000E800FEFFB50546B8
:1014D00004464035687881B0202877D128780128E3
:1014E00074D001202870FFF7EBFE07460122009020
:1014F0001923D103204600F0E1FF002851D121201B
:1015000068701020A87000266664039860620499D1
:1015100061856663628D3949FF2A03D9FF222285DE
:10152000CB0206E0628D228501235B061204120CB9
:101530000FD0226800789062606A401C6062608D03
:10154000401E6085208D401E2085401CC2B2009147
:1015500001E0002200912046029900F099FF16E078
:1015600001F063F800281CD1606A21680078886265
:10157000606A401C6062608D401E6085208D401E48
:1015800080B22085618D002901D000280CD0608DAB
:101590000A9900283A462046E2D101F01BF80028BB
:1015A0001DD0012005B0F0BD00970022802120460B
:1015B0000A9B00F083FF0028F3D1608DFF2806D935
:1015C000FF22228501231B060096C4E714E0608DEC
:1015D00020850096208D0123C2B25B06BBE72168FF
:1015E0002020C86121684A68054B1A404A6068702B
:1015F000AE702E700020D5E70220D3E700200080D7
:1016000000E800FE10B500680A49884210D10A4877
:10161000C169012252059143C16109244115E406C3
:101620002046FFF711FD012189022046FFF70CFD3E
:1016300010BD0000005400400010024010B586B0FC
:10164000044614216846FEF740FE1349206888428C
:1016500020D1124C6169012040040143616161693C
:1016600001400320059140020090122001900020CB
:101670000290032003900420049009206946C006CC
:10168000FFF74CFDE169012040050143E161E1699B
:101690000140059106B010BD00540040001002400A
:1016A0000248816802788918816070471C00002018
:1016B00010B506480168102211430160032000F0B4
:1016C00007F800F027F8002010BD000000200240BD
:1016D00070B504460D4D7D202978C000FEF7F7FD5A
:1016E00001460B480068FEF7F2FD00F01DFB0028E4
:1016F00009D1042C07D200222146401E00F02AF80E
:1017000000206C6070BD012070BD00001C00002036
:101710002800002008B50848816901221143816131
:10172000816911400091C26901040A43C261C06924
:101730000840009008BD000000100240002805DBB2
:10174000C106C90E012088400149086070470000A9
:1017500000E100E010B501F003FB10BDF8B505464F
:101760000068354CC00352D5E0690026C00007D49C
:10177000E16920040143E161E16901400126009132
:101780002E480168C90510D4016882151143016013
:10179000FFF796FD074604E0FFF792FDC01B6428A3
:1017A00024D826480068C005F6D5206A03273F02E2
:1017B000384020D06968394081421CD0206A226AB2
:1017C000B843012109040A432262226A8A43226241
:1017D0002062C0070FD0FFF773FD009008E0FFF70D
:1017E0006FFD0099411A1648814201D90320F8BDC6
:1017F000206A8007F3D5206A6968B84308432062ED
:10180000002E04D0E169012000078143E1612878BE
:10181000C00705D0206BA9688008800008432063BA
:101820002878800605D5206B10218843E968084395
:1018300020630020F8BD000000100240007000404E
:1018400088130000F8B50F46060059D03A4D2868B5
:10185000C007C00FB84209D228684008400038438A
:1018600028602868C007C00FB84249D13068334C9F
:1018700081070CD5400704D5606807210902084399
:1018800060606068F0218843B16808436060307828
:10189000C00726D0706801280ED0216802280ED01B
:1018A000890700292CDA6168890889000143616091
:1018B000FFF706FD00900DE021688903F1E789013B
:1018C000EFE7FFF7FDFC0099411A1D48814201D95D
:1018D0000320F8BD60680C210840716889008842C7
:1018E000EFD12868C007C00FB8420BD9286840085C
:1018F0004000384328602868C007C00FB84201D0B4
:101900000120F8BD3078400706D56068072109023C
:101910008843F1680843606000F018F86168094A7C
:101920000906090F515CC840074908600320FFF70A
:10193000CFFE0020F8BD0000002002400010024051
:1019400088130000083300082800002010B5104A52
:1019500051680C200B4603400E48042B17D0082B6F
:1019600015D18B020C4C1B0FE45CD26A0A4B120798
:10197000120F10339A5CC90305D500231946FEF7F0
:1019800005FC214601E02046044901F0D1F910BDD3
:101990000010024000127A00E832000800093D0001
:1019A000FEB5040070D02078DC4DC0074AD06868CE
:1019B0000007800F012807D068680007800F022801
:1019C00009D16868C00306D5286880033AD56068E5
:1019D0000028E7D036E06168012914D00120800496
:1019E000002901D0052914D02A68012109048A435D
:1019F0002A602968814329606068002816D0FFF7B3
:101A00005FFC06460EE028680121090408432860AF
:101A1000F2E7296801432960F5E7FFF751FC801BD5
:101A200064286ED828688003F7D50BE0FFF748FCE0
:101A3000064604E0FFF744FC801B6428F1D82868C0
:101A40008003F7D420780126800700283CDA6868F4
:101A50000007800F07D068680007800F022809D1AF
:101A60006868C00306D42868800716D5E068012896
:101A70000AD112E0E0680028286816D030432860B8
:101A8000FFF71EFC074605E043E1FFF719FCC01B0A
:101A90000228C6D828688007F7D52868F821884327
:101AA0002169C900084328600EE040084000286012
:101AB000FFF706FC074604E0FFF702FCC01B022804
:101AC000AFD828688007F7D42078000722D5E069CE
:101AD0000028686A0ED030436862FFF7F1FB0746C2
:101AE00004E0FFF7EDFBC01B02289AD8686A800764
:101AF000F7D50FE0400840006862FFF7E1FB0746BA
:101B000005E09DE0FFF7DCFBC01B022889D8686A6E
:101B10008007F7D4207804274007002860DA0020E7
:101B20000190E869C00008D4E969B8060143E96199
:101B3000E969014001200091019079480168C905D7
:101B400011D40168821511430160FFF7B9FB0090C1
:101B500005E0FFF7B5FB0099401A642870D870487B
:101B60000068C005F5D5A06801280AD0002801D07A
:101B7000052810D0286A400840002862286AB84327
:101B800001E0286A30432862A068002812D0FFF7DD
:101B900097FB00900AE0286A38432862F1E7FFF7D4
:101BA0008FFB0099411A5F48814249D8286A800713
:101BB000F5D50DE0FFF784FB009006E0FFF780FB12
:101BC0000099411A574881423AD8286A8007F5D4CB
:101BD0000198002804D0E969012000078143E961E8
:101BE0002078C00635D5606901280CD0401D686B8F
:101BF00023D038436863686B400840006863FFF790
:101C00005FFB064622E0686B38436863686B3043CD
:101C10006863FFF755FB064604E0FFF751FB801BA6
:101C200002285BD8686B8007F7D5686BF82188437A
:101C3000A169C900084368630BE0B8436863F4E72F
:101C40004CE0FFF73DFB801B022847D8686B8007FC
:101C5000F7D4206A00285ED069680907890F022935
:101C600042D0012636060228286805D0B0432860F5
:101C7000FFF726FB044633E0B0432860FFF720FB64
:101C8000074604E0FFF71CFBC01B022826D8286883
:101C90008001F7D4E86AE16A000900010843E862BC
:101CA000616AA06A084369683D22120491430843AF
:101CB0006860286830432860FFF702FB044604E0B0
:101CC000FFF7FEFA001B022808D828688001F7D524
:101CD00021E0FFF7F5FA001B022801D90320FEBD21
:101CE00028688001F5D416E00128F8D06868E96A10
:101CF00001221204636A02409A420AD10907E26A89
:101D0000090F914205D10F2189040840A16A884238
:101D100001D00120FEBD0020FEBD000000100240E9
:101D20000070004088130000094910B5401E884229
:101D300001D9012010BD074C60610321081F01F08B
:101D40000FF80020A06107202061002010BD0000D6
:101D5000FFFFFF0000E000E0F0B502462032137FF5
:101D6000012B1BD0012616770223537705686B6879
:101D7000AC687027BB430F681F436F600068084B57
:101D8000984202D0074B984204D1802349689C4373
:101D900021438160567700201077F0BD0220F0BD0E
:101DA000002C01400004004070B586B004461421A8
:101DB0006846FEF78AFA16492068884225D11548F8
:101DC000426949130A43426142690A4005924269E5
:101DD00049000A4342614069002408400590802080
:101DE0000090022501260920029469460496019577
:101DF0000394C006FFF792F90095029469460648DD
:101E0000049601950394FFF789F906B070BD0000B0
:101E1000000400400010024000040048F8B50646E7
:101E200004462036307F00270D4601280ED00120C1
:101E30003077002A0CD0042A1BD0082A2FD00C2A75
:101E40003ED00127002030773846F8BD0220F8BD8B
:101E5000206800F061FD20688169082211438161DA
:101E60002068826904218A438261206881692A6925
:101E700012E0206800F08CFD206882690121C9020F
:101E80000A43826120688169012292029143816143
:101E9000206881692A69120211438161D2E72068B2
:101EA00000F0B0FD2068C16908221143C1612068BB
:101EB000C26904218A43C2612068C1692A6912E0AB
:101EC000206800F0DBFD2068C1690122D2021143C5
:101ED000C1612068C269012189028A43C261206808
:101EE000C1692A6912021143C161ABE770B50400F0
:101EF00005D025462035687F002802D006E0012065
:101F000070BD00202877204600F014F80220687782
:101F1000211D206800F0AEFC01204034A071A8779C
:101F2000E87720706070A070E07020716071687751
:101F3000002070BD08B500680549884207D10548F2
:101F4000C26902210A43C261C0690840009008BD0D
:101F5000000400400010024010B504460222203068
:101F600000290AD004290DD02046403008290ED07F
:101F70004378012B10D0012010BD837F012BFAD1B3
:101F800082770AE0C37F012BF5D1C27705E00378A1
:101F9000012BF0D1027000E042700122206800F0B5
:101FA000ADFC10492068884205D00F4A904202D00B
:101FB0000E4A904204D1426C0123DB031A4342646F
:101FC00020680122884202D00949884204D18168F0
:101FD0004907490F062902D001681143016000201A
:101FE00010BD0000002C01400044014000480140A9
:101FF0000004004010B5044680300068202801D05D
:10200000022010BD00290BD0002A09D00123A068AE
:102010001B03984206D12069002803D1C80701D0CC
:10202000012010BD0120206600206066204600F0DF
:1020300021FE010003D1206E012802D001210846B3
:1020400010BD206810220262EFF31080012383F399
:10205000108823681C6814431C6080F31088EEE726
:1020600010B50068094A90420ED1094C61800120E8
:1020700020700848C078FEF7CFFAFF2205490132E8
:1020800060608818FFF7B6FF10BD000000380140FF
:10209000140000204C01002010B5074A016891424D
:1020A00009D108220A62006802210162CA010349BB
:1020B0008818FFF79FFF10BD003801404C01002039
:1020C000F8B502680446D069116893689E4D0646CB
:1020D0002E4025468035002E71D09C4FDE07F60F2E
:1020E0000F4037437ED0C70706D0CF0504D5012760
:1020F00017626A683A436A60820708D5DA0706D031
:10210000276802223A626A6804273A436A604207F3
:1021100008D5DA0706D0236804221A626A68022307
:102120001A436A60020709D520220A40324305D0CB
:10213000236808221A626B6813436B60020509D595
:102140004A0107D501222368D2021A626B68202255
:1021500013436B606A68002A39D0800606D588066A
:1021600004D5A16E002901D02046884768682168FF
:102170008968490602D4282108422DD0204600F063
:1021800039FD21688868400622D5EFF310800122CE
:1021900082F310888A6840239A438A6080F310880B
:1021A000606F002814D06A494163606FFEF768FED3
:1021B00000280CD0606F416B08E000E012E083065D
:1021C00010D58B060ED5A16EA3E020468847F8BD3A
:1021D0002046FFF761FFF8BD2046FFF75DFF0020B6
:1021E0006860F8BD236E012B7ED1C3067CD5CB067B
:1021F0007AD510231362226890682646400640363E
:10220000002848DA616F086840680004000CE8D0D4
:10221000378B8742E5D970838869202834D0EFF363
:102220001080012181F3108811681F01B9431160EA
:1022300080F31088EFF31080012181F3108821686A
:102240008A68520852008A6080F31088EFF3108089
:10225000012181F3108821688A684027BA438A6087
:1022600080F310882020286000202066EFF3108083
:10227000012181F3108821680A689A430A6080F37B
:102280001088606FFEF7DCFD02206066308B718B7A
:10229000401A81B234E0308B718B401A81B2708B5E
:1022A00000289ED000299CD0EFF31080012686F3F1
:1022B00010881668FF272137BE43166080F3108808
:1022C000EFF31080012282F3108822689668760866
:1022D0007600966080F31088202028600020206619
:1022E000A066EFF3108000E00EE0012282F3108878
:1022F000226815689D43156080F31088022060668F
:102300002046FFF7ADFEF8BD030606D50B0604D543
:10231000E16E002900D058E7F8BD4006FCD548061C
:10232000FAD52046EFF31081012383F31088146857
:1023300040239C43146081F310882021C167002151
:10234000C16600F009F8F8BD0F0800002001000484
:10235000DD2A0008704770477047FEE701688A6908
:10236000D243920701D400228A6200688169C9437E
:10237000C90703D0816901221143816170470000C0
:10238000F7B50446006882B0816900262746C90671
:10239000403735460092002945DA1021C16132E00C
:1023A0000398401C2FD0FEF78BFF0099411A039829
:1023B000814201D8002826D1206841680122920379
:1023C0001140BA788369DB431B0417D401239B03B4
:1023D000994213D0202A11D0416819434160FEF779
:1023E0006FFF00900AE0FEF76BFF01460098081AA5
:1023F000192803D920200543012604E020688069BC
:10240000C0438006EFD420688069C043800602D5AF
:10241000002EC5D004E0002E02D121682020C86122
:1024200004200543012621688869C20504D50122DC
:1024300015431202CA610126410508D508210D4342
:10244000CA012168CA610126800502D40AE080051C
:1024500006D50220054321680002C861012601E07B
:10246000002E0FD02046FFF779FF20684168074A09
:1024700011404160606C2843606420207870002027
:10248000B8703870304605B0F0BD000000E800FEBE
:10249000890510B5890D12041143029C1943026885
:1024A0002143490050684908630D034C2343984376
:1024B0000843506010BD0000FF63FF03F8B51D46E0
:1024C00017460E46044626E029462046069AFFF7A0
:1024D00057FF002801D00120F8BD681C1BD0FEF773
:1024E000EFFE0699401AA84201D8002D13D12068AA
:1024F0008169304688430CD00020B8420BD1616C12
:10250000202001436164403460700020A07020707E
:10251000E1E70120F1E7206881693046884304D073
:102520000020B842D0D00020F8BD0120F9E700001B
:10253000F7B5002520270646044640363EE02046F3
:10254000029A0199FFF71CFF002800D0012520689E
:102550008169C943890619D4002D17D18169816920
:10256000C943C90610D41021C161042060642068E9
:10257000C76120684168164A1140416077700020A9
:10258000B0703070012501E000206064FEF798FE15
:1025900001460298091A0198814201D800280DD1FC
:1025A000002D0BD120688069C043400706D5606CC0
:1025B000384360647770002030700125206880699E
:1025C000C043400701D5002DB9D02846FEBD00000C
:1025D00000E800FE70B516460D4604461EE0324681
:1025E00029462046FFF7CCFE002801D0012070BD0F
:1025F000FEF766FE801BA84201D8002D0ED1206890
:102600008069C043800609D5616C20200143616464
:10261000403460700020A0702070E7E72068806977
:10262000C0438006DBD4002070BD70B516460D4651
:10263000044620E0324629462046FFF7A1FE002846
:1026400001D0012070BD681C15D0FEF739FE801B3B
:10265000A84201D8002D0ED120688069C0438007B0
:1026600009D5616C20200143616440346070002012
:10267000A0702070E5E720688069C0438007D9D446
:10268000002070BD08B50C484269012189050A4344
:10269000426142690A400092426949110A4342611B
:1026A00042690A400092426949000A434261406916
:1026B0000840009008BD00000010024010B50B4813
:1026C000094901600A49416000218160016141615D
:1026D00081610122C161C2600162FEF711FE002822
:1026E00001D0FEF7BDF910BD00540040B00000203D
:1026F000FFD8700010B58AB0002407941C216846EA
:102700000894FDF7E2FD1A491A4812C0046084607B
:102710001949046141600838FFF7E8FB002801D03F
:10272000FEF79EF9079407A912480894FFF714FBD7
:10273000002801D0FEF794F96020009001940294E3
:102740000422694604940B48FFF768FB002801D077
:10275000FEF786F90C2269460648FFF75FFB002862
:1027600001D0FEF77DF90348FFF71EFB0AB010BD4C
:102770000004004004010020FFFF0000FEE700000D
:1027800070B5FDF749FF134D294600F0ADFC124925
:10279000FDF74EFE04460146284600F0FDFC0F4DB5
:1027A000294600F0A1FC2146FDF742FE2946FDF72F
:1027B0003FFE00F037FB0A49FDF73AFE094900F0F9
:1027C0004DFC01467F20C005FDF732FE064900F0B2
:1027D000E3FC70BD3333534000F07F450050C347E6
:1027E00000E076450FCF5B3B3393884370477047DB
:1027F00010B5FEF755FF10BD70B594B03021684696
:10280000FDF763FD00240F94112000900120109427
:1028100001900E9405901394000409900D941025D6
:1028200000010C941294022606950A9011940896C1
:102830000B946846FFF7B4F8002801D072B6FEE7A3
:1028400007200C900E9401210D960F940CA8FEF712
:10285000F9FF002801D072B6FEE7202010901395F2
:1028600010A8FEF77BFF002801D072B6FEE714B077
:1028700070BD704770B502681B4B1C4E984201D06A
:10288000B04203D17024A2434C682243184C194D26
:10289000984208D0B04206D0174EB04203D0A042B2
:1028A00001D0A84204D103263602B243CE68324397
:1028B0008026B2434E69324302608A68C2620A6867
:1028C0008262984203D0A04201D0A84201D1096996
:1028D0000163012141610169C90703D00169490808
:1028E0004900016170BD0000002C0140000400405F
:1028F00000440140004801400020004010B5CB06D4
:10290000DB0E0121046A99408C430462016A9A40FB
:102910001143016210BD0000F0B5056A026A520859
:1029200052000262436882697024A24392080C68D4
:1029300092001443022295438A68134E2A43114D94
:10294000A84204D0B04202D0104FB84206D10827A6
:10295000BA43CF681743042297433A46A84204D0AB
:10296000B04202D0094DA84206D103252D02AB4347
:102970004D691D438B692B43436084614968416302
:102980000262F0BD002C01400044014000480140BB
:1029900070B5046A026A10239A430262436882692E
:1029A00073252D02AA430D682D021543202294435E
:1029B0008A6812012243104CA04208D11446CA680A
:1029C0008026B443120122434024A24305E00B4C6D
:1029D000A04202D00A4CA04208D10324A402A3437F
:1029E0004C69A4001C438B699B00234343608561B1
:1029F00049688163026270BD002C014000440140BF
:102A00000048014070B5056A026AFF2301339A430A
:102A100002624268C3697024A3439B080C689B0050
:102A20001C4301235B029D438B681B022B43104D0B
:102A3000A84208D11D46CB68C614B5431B022B43E0
:102A40000515AB4305E00B4DA84202D00A4DA84244
:102A500008D103252D03AA434D692D0115438A6929
:102A600012012A434260C4614968C163036270BDB8
:102A7000002C0140004401400048014030B5046A88
:102A8000026A01231B039A4302624368C2697325E9
:102A90002D02AA430D682D021543012252039443CF
:102AA0008A68120322430A4CA04205D0094CA04276
:102AB00002D0094CA04205D10124A403A3434C69D0
:102AC000A40123434360C56149680164026230BDCB
:102AD000002C0140004401400048014010B5406A0C
:102AE0000022014640314A834A82FFF7D5FA10BDE1
:102AF000F8B5446AE06F254680352E6821688968FC
:102B000000270906002906DA212804D1522007539C
:102B1000204600F09FF820688068400606D5222EE7
:102B200004D15A200753204600F064F86868102149
:102B3000084368602046FFF7AFFAF8BD70B501465C
:102B40008969406A0022202938D05A210A52EFF3BD
:102B50001081012383F3108803681C68FF25013569
:102B6000AC431C6081F31088EFF31081012383F3E1
:102B7000108803689C68640864009C6081F3108876
:102B8000EFF31081012383F3108803689C684025CC
:102B9000AC439C6081F31088202380210B50016E90
:102BA00001290BD1EFF31081012383F3108803680F
:102BB0001C681025AC431C6081F310884266016ECE
:102BC000012902D0FFF7C6FB70BD5821095AFFF753
:102BD00047FA70BD10B5406A01214166016E0129B6
:102BE00002D0FFF7B8FB10BD5821095A4908FFF77A
:102BF00037FA10BD10B5EFF31081012282F310886F
:102C000002681368FF242134A343136081F3108802
:102C1000EFF31081012282F31088026893685B0849
:102C20005B00936081F31088016E01290BD1EFF3F3
:102C30001081012282F31088026813681024A343D4
:102C4000136081F31088202280210A500021016640
:102C5000816610BD10B5EFF31081012282F3108858
:102C600002681368C024A343136081F310882021F5
:102C7000C16710BD70B50446416540300283002035
:102C800025468035686022212960616F002919D0AE
:102C9000204B8B62636F2049D962636F1F491963B0
:102CA000616F13464863666D216832462431606F58
:102CB000FEF782F9002805D01020686020202860E7
:102CC000012070BD206900280CD0EFF31080012195
:102CD00081F3108821680A68FF2301331A430A60D0
:102CE00080F31088EFF31080012181F310882268AF
:102CF00093680B43936080F31088EFF3108081F3A7
:102D0000108821688A6840231A438A6080F31088FB
:102D1000002070BD3D2B0008D52B0008F12A0008CB
:102D200010B50248FFF7CCF910BD00004C0200209E
:102D3000F8B5040C8BB2264682B25E430D0C1046E9
:102D4000370C5843360480190021794116466E43EA
:102D5000370C36048019794126466E438919F8BD2F
:102D60008307FF22DB0E9A408907090E994000284D
:102D700008DB830809489B001B1818689043084328
:102D8000186070470007000F0838830804489B004C
:102D90001B18D86990430843D861704700E400E0ED
:102DA00000ED00E0FEB50025044600950195029572
:102DB0002160A560012601212661C907E5606160E7
:102DC000A676E576FF21C23125622420E161065511
:102DD0000420606117462046FDF7D0FE002801D090
:102DE000FDF73EFE00200090022002900196694609
:102DF0002046FDF737FE002800D001250220019073
:102E0000694600962046FDF72DFE002800D06D1C77
:102E10007A78B91C2046FDF7C3FF002800D06D1C4E
:102E20002846FEBD012110B5C905884201DA0948CE
:102E300010BD41004002090EC40E08467F38FDF760
:102E4000E3FB054900F050F9044AA100515800F095
:102E500005F910BD0000C8C21872313F6832000881
:102E60001FB5FEF725FCFFF7C7FCFFF70BFCFFF7CC
:102E700025FCFFF73FFC5C4C0025257002206070AC
:102E800022465A495A48FFF78DFF002801D072B6F2
:102E9000FEE704215748FFF75FF80C215548FFF77C
:102EA0005BF8FDF7A3FC00204F4C00900190608878
:102EB000FFF766FC0390A088FFF762FC029001A96F
:102EC0006846FDF7D1FC002809D000266088E12182
:102ED000FF3809012D38884203D8012002E001267D
:102EE000F4E70020A288FF3A2D3A8A4201D8012750
:102EF00000E0002700252C46002805D0284603992D
:102F000000F0ACF805460124002F05D028460299B0
:102F100000F0A4F80546641C002E05D02846009950
:102F200000F09CF80546641C002C2DD02046FDF7CF
:102F300073FB01462846FDF77BFA04460199FDF72D
:102F400021FD0146204600F027F92B4D2978002964
:102F500023D02A4988423BDD00202870284920469A
:102F600000F01AF90446274900F0BEF80646264943
:102F7000204600F0B9F8696800F070F8234C6860EA
:102F8000A04213DD6C6017E000220221194800F016
:102F90003FF819490020486022E0FF218905884256
:102FA000DCDA012028700020686011E0FF21C905EB
:102FB000C84201D3002068603046696800F04EF8CE
:102FC000A04201DD204604E0FF21C905C84200D32C
:102FD0000020FDF7DDFAC2B20221064800F018F821
:102FE0003220FEF71FF85EE70800002000240140B1
:102FF0002C000020040100200000002000002040E0
:103000000000A0400000C841CDCC4C3D0000C842AB
:1030100070B50D460446642A01D3E06811E0002A29
:1030200018D01046FDF7F8FA0B49FDF701FA0646ED
:10303000E068401CFDF7F0FA314600F055F8FDF766
:10304000A7FA290701D521680864A90701D52168D5
:10305000886370BD0020F4E70000C84270B5012508
:103060000400ED074C4020D4441A01D2001B09197A
:10307000C60D4B00F2B2FF2A29D01B0E2CD0000245
:103080000C02D31A2C43DC402843051910D2280A1D
:1030900002D3401C6D0611D0761EF6058019FF2A5A
:1030A00000DA70BDC00DC00570BD694000F07AF84F
:1030B00001200543C541521C761CE8E764089C408A
:1030C000C90161408900E7D10124A043E4E71B0E58
:1030D000440200D0034870BD002AFCD1C00FC007D5
:1030E00070BD00BF0000C07F70B5420064414B005E
:1030F0005C41120E39D01B0E38D0FF2A3CD0FF2B7A
:103100003AD040024902400A490A060045184E4397
:10311000000A090AD2184843ED017F3A0104731AE4
:103120004019190C4318990F04D001215B08490775
:103130005B1A521CD80904D3401CF50301D19D062B
:1031400007D0FF2A08D2D50506D0E407204340194E
:1031500070BD0125A843F4E7002A01DCE00770BD3B
:103160002402FF202043C00570BD1B0EFF2A03D0A0
:10317000FF2B01D0E00770BDFF2645003606B542A3
:1031800006D84D00B54203D8D218FF2A00D0E7E791
:10319000004870BD0000C07F70B501250400ED0738
:1031A0004C4022D4441A02D26C40001B0919C60DAF
:1031B0004B00F2B2FF2A4BD01B0E50D000020C0283
:1031C000D31A2C43DC40A843051B05D5AD0019D309
:1031D0006D08761E521E37D0F605280A01D28019D6
:1031E00070BD70416D0603D070BD6940FFF73CFFB4
:1031F0009C4009026140490001D0401E70BD01247D
:10320000A04370BD6D081DD001202B0C01D12D04F1
:1032100010302B0E01D12D0208302B0F01D12D01C2
:10322000001DAB0F01D1AD00801CEB0F01D16D0073
:10323000401C6D00361A121A680AF5054019012A59
:1032400002DB70BD002070BDC036300AC00770BD03
:103250001B0E440201D1FF2B00D1024870BD002A91
:10326000F0D070BD0000C07F7D047E3C38A23B3DA5
:10327000840E9A3D3197D43DF0C2063E5779223EE6
:103280008E793D3E8ACD573EBB7E713EA14A853E3A
:103290005D8C913EF9879D3EDD40A93E52BAB43E19
:1032A00038F7BF3E51FACA3E3BC6D53E745DE03E9C
:1032B00059C2EA3E23F7F43E0DFEFE3E666C043F23
:1032C000BB44093FD1080E3F91B9123FB457173F95
:1032D00004E41B3F295F203FC9C9243F9E24293FA6
:1032E0002E702D3F21AD313F02030405060708096A
:1032F0000A0B0C0D0E0F101001020304050607083F
:10330000090A0B0C0D0E0F10000000000000000059
:103310000102030406070809818283848586878861
:10332000898B8C8D8E8F919293959697999A9C9D6F
:103330009FA0A2A3A5A7A8AAACAEB0B2B3B5B7B9D7
:10334000BCBEC0C2C5C7C9CCCED1D4D7D9DCDFE2A0
:10335000E6E9ECF0F3F7FAFE78330008000000200D
:103360002C000000F4000008A43300082C0000200A
:103370004C090000100100080000000000000000DF
:10338000000000000000000000000000000000003D
:103390000000000001000000040000000000000028
:0433A00000127A009D
:04000005080000B13E
:00000001FF
